:020000040800F2
:1000000088210020910F0008A5060008CB6D00088C
:10001000A7060008AB060008AF06000800000000B5
:10002000000000000000000000000000B30600080F
:10003000A50F000800000000176D0008CB050008A0
:10004000AB0F0008AB0F0008AB0F0008AB0F0008A8
:10005000AB0F0008AB0F0008DF0A0008F10A000828
:10006000AB0F0008150B0008270B0008AB0F0008AA
:10007000AB0F0008AB0F0008AB0F0008AB0F000878
:10008000AB0F0008AB0F0008AB0F0008AB0F000868
:10009000AB0F0008AB0F0008AB0F0008390B0008CE
:1000A000AB0F0008AB0F0008AB0F0008AB0F000848
:1000B000AB0F0008AB0F000800000000AB0F0008FA
:1000C000AB0F00080000000000000000AB0F0008AC
:1000D00000000000DF0C0008AB0F0008AB0F0008A9
:1000E000670B0008AB0F00080000000000000000D4
:1000F0000000000000000000000000000000000000
:1001000000000000000000000000000000000000EF
:100110000000000000000000AB0F0008AB0F00085B
:1001200000000000000000000000000000000000CF
:1001300000000000000000000000000000000000BF
:10014000AB0F0008AB0F000800000000AB0F000869
:10015000AB0F0008AB0F0008AB0F0008AB0F000897
:10016000AB0F0008AB0F000800000000000000000B
:10017000000000000000000000000000000000007F
:1001800000000000AB0F000800F002F800F065F876
:100190000AA090E8000C82448344AAF10107DA45E2
:1001A00001D100F05AF8AFF2090EBAE80F0013F0CF
:1001B000010F18BFFB1A43F0010318474CDF000082
:1001C0006CDF00000A444FF0000C10F8013B13F004
:1001D000070408BF10F8014B1D1108BF10F8015BA0
:1001E000641E05D010F8016B641E01F8016BF9D193
:1001F00013F0080F1EBF10F8014BAD1C0C1B09D1EA
:100200006D1E58BF01F801CBFAD505E014F8016B5B
:1002100001F8016B6D1EF9D59142D6D370470000ED
:100220000023002400250026103A28BF78C1FBD8FF
:10023000520728BF30C148BF0B6070471FB50DF093
:100240005BF80DF01FF80400002000210DF03EF8CF
:10025000401C60601FBD10B510BD0CF0EEFF1146D4
:10026000FFF7ECFF04F0F0FA0DF01EF803B4FFF70F
:10027000F2FF03BC0DF022F80121352006F05BFEF1
:100280000121362006F057FE0121372006F053FEEB
:100290000421352006F044FE0421362006F040FEFD
:1002A0000421372006F03CFE25E0002421E004F183
:1002B0003500012106F03FFEA01C032190FBF1F266
:1002C00001FB120000F135050121284606F033FE3E
:1002D000601C032190FBF1F201FB120000F13505D7
:1002E0000021284606F027FE0A2006F026FA601CA8
:1002F000C4B2032CDBDBD8E710B50446012135205E
:1003000006F019FE0121362006F015FE01213720E6
:1003100006F011FE0421352006F002FE04213620ED
:1003200006F0FEFD0421372006F0FAFD01213520FC
:1003300006F001FE0121362006F0FDFD01213720E7
:1003400006F0F9FD002201211DA004F0BDFC1F49AB
:10035000086010BD04462646277831461CA005F0EB
:1003600048FA2BE04FF0FF311848006804F0CCFC4D
:100370000546002D22D1352F04D0362F06D0372F39
:100380000CD107E016A005F034FA07E01EA005F036
:1003900030FA03E026A005F02CFA00BF00BF0021D0
:1003A000384606F0C8FD322006F0C7F9012138466C
:1003B00006F0C1FD0548006804F0E7FCD2E7000044
:1003C0006C6564206F6E2073656D00000000002076
:1003D000706172616D203D20256C640D0A00000083
:1003E0006C6564207265642020202020202020205D
:1003F00020202067657420746865207265736F75AE
:100400007263652E0D0A00006C6564202020202098
:10041000677265656E202020202020676574207437
:100420006865207265736F757263652E0D0A000032
:100430006C65642020202020202020202020626C59
:1004400075652067657420746865207265736F75C3
:100450007263652E0D0A00002DE9FC410A20009010
:100460004FF47A7300222449019024A006F0B0F8DA
:10047000074617B1384606F072F835202249087051
:1004800036204870372088700A2014214FF47A7380
:100490001D4ACDE900101D491DA006F099F804463B
:1004A00014B1204606F05BF80A2014214FF47A7349
:1004B000154A521CCDE90010144917A006F088F81F
:1004C000054615B1284606F04AF80A2014214FF4D3
:1004D0007A730D4A921CCDE900100C4911A006F068
:1004E00077F8064616B1304606F039F80020BDE828
:1004F000FC8100BFFEE70000F90200086C65642083
:10050000696E6974000000000400002055030008B3
:100510006C656420726564006C6564204772656573
:100520006E0000006C656420426C75650000000080
:1005300010B596B001200C904FF4A0200D90002033
:100540000E900120109002201390C10314914FF4DB
:10055000E01115910CA801F001F918B1302149A062
:10056000FFF7C7FF0F200790022008900020099096
:100570004FF480600A9000200B90022107A801F040
:100580002EFE18B13E213FA0FFF7B3FF01200090DF
:1005900000200290684602F0A7F818B1452139A062
:1005A000FFF7A7FF01F0DAFF4FF47A71B0FBF1F427
:1005B000204600F055FE042000F0F2FE0022114615
:1005C000501E00F0D7FD16B010BD10B504F024FD8C
:1005D00000F036FD04F0C7F804F02BFD10BD70B537
:1005E000044601F0BBFF6421B0FBF1F5284600F0A2
:1005F00037FE00222146501E00F0BCFD002070BDD9
:1006000001B5009806F099F808BD7047704710B51D
:10061000032000F09DFD002211466FF00B0000F05A
:10062000A9FD002211466FF00A0000F0A3FD002290
:1006300011466FF0090000F09DFD00221146501F89
:1006400000F098FD00221146101F00F093FD0022DB
:100650000F21901E00F08EFD00220F21501E00F091
:1006600089FD10BD10B5FFF763FF00F0C4FC094918
:10067000094805F043FA04F0A5F808A005F02EF9A2
:1006800010BD0000647269766572735C626F61729E
:10069000642E630000300020882100207561727490
:1006A00031000000704700BFFEE700BFFEE700BF5B
:1006B000FEE7704708B500BFFE48406940F40030CF
:1006C000FC4948610846406900F40030009000BFD2
:1006D00000BF08BD08B500BFF648406940F480205F
:1006E000F44948610846406900F48020009000BF4A
:1006F00000BF08BD08B500BFEE48406940F40020C7
:10070000EC4948610846406900F40020009000BFB1
:1007100000BF08BD0146312907D2E74A02EB0110AC
:100720000268521C12B9002000E0002070472DE939
:10073000F04107460D461646E8B2FFF7EBFF0446C8
:100740000CB9BDE8F081F2B2A38999B2A06800F0BB
:10075000AAFF00BFF5E72DE9F04107460D46002648
:10076000E8B2FFF7D7FF044614B93046BDE8F08180
:10077000A28991B2A06800F08EFF06463046F5E7E8
:10078000F0B585B007460E461446F0B2FFF7C2FF3B
:1007900005460DB905B0F0BD68688047E86800906F
:1007A00001200190002002900320039024B9012031
:1007B00001900020029019E0012C03D1002001904B
:1007C000029013E0022C04D100200190012002903D
:1007D0000CE0032C04D1002001900220029005E0DF
:1007E000042C03D111200190002002906946A868D2
:1007F00000F000FE00BFCDE70246002106E0012028
:100800008840904201D108467047491C2029F6DBF8
:100810004FF0FF30F8E72DE9F05F83460D461646AE
:100820001F46DDF828804FF0FF34E8B2FFF772FF73
:100830008146B9F1000F02D10620BDE8F09FD9F83A
:100840000C00FFF7D9FF0446002C01DB102C01D36C
:100850000620F2E706F048FA824604EB4400974986
:1008600031F92000A84219D104EB440001EB8000CB
:100870004068B84212D104EB440001EB800040888C
:10088000B0420BD104EB440001EB8000806840458E
:1008900004D1504606F02CFA0020CEE704EB4400C9
:1008A000864931F92000401C20B1504606F020FA5C
:1008B0000720C2E728B204EB4401804A22F8210055
:1008C00004EB4400114601EB8000476004EB440157
:1008D00002EB81014E8004EB4400114601EB8000E5
:1008E000C0F80880504606F003FA0020A5E72DE97D
:1008F000F04180460D464FF0FF34E8B2FFF70AFFA3
:10090000064616B90620BDE8F081F068FFF774FFCF
:100910000446002C01DB102C01D30620F3E706F07F
:10092000E3F9074604EB4400644931F92000401C18
:1009300020B9384606F0DCF90020E4E74FF0FF303C
:1009400004EB44015D4A22F82100002004EB44013D
:1009500002EB8101486004EB440102EB8101488015
:1009600004EB440102EB81018860384606F0C0F9CF
:100970000020C8E72DE9F04F85B0894617464FF0B3
:10098000FF3609F0FF00FFF7C5FE04461CB906203C
:1009900005B0BDE8F08F012F4BD1E068FFF72CFFC9
:1009A0000646002E01DB102E01D30620F0E706F0EC
:1009B0009BF9834606EB4600404931F92000401C74
:1009C00020B9584606F094F90620E1E73C4800EBD0
:1009D000860560688047E068009000200290032050
:1009E000039006EB4600354901EB8000408820B1BA
:1009F000012805D0022809D105E03248019005E020
:100A00003148019002E03148019000BF00BF6946C3
:100A1000A06800F0EFFC95F902000022052100F02B
:100A2000A9FB95F9020000F0E3FB584606F060F9D7
:100A30001CE0CFB9D4F80CA05046FFF7DDFE80468D
:100A4000B8F1000F02DBB8F1100F01D3002002E073
:100A50001B4800EB880005460DB9062098E795F97C
:100A6000020000F0D2FB01E0062091E700208FE7B2
:100A700010B50022164917A006F000FA04462046D9
:100A800010BD70B505462846FFF7B6FE044604EBD8
:100A900044000A4901EB80004068F0B104EB4402D5
:100AA0000B4603EB8202906804EB440203EB8202E4
:100AB000516811E00010024004D300080800002033
:100AC00014D60008000011100000211000003110A1
:100AD00054D6000870696E00884700BF70BD10B51D
:100AE00004F09AFA012000F0FFFD04F0A2FA10BD14
:100AF00010B504F091FA022000F0F6FD04F099FA26
:100B000010BD10B504F088FA042000F0EDFD04F0EB
:100B100090FA10BD10B504F07FFA082000F0E4FD53
:100B200004F087FA10BD10B504F076FA102000F03A
:100B3000DBFD04F07EFA10BD10B504F06DFA202044
:100B400000F0D2FD402000F0CFFD802000F0CCFD71
:100B50004FF4807000F0C8FD4FF4007000F0C4FD49
:100B600004F067FA10BD10B504F056FA4FF4806037
:100B700000F0BAFD4FF4006000F0B6FD4FF4805075
:100B800000F0B2FD4FF4005000F0AEFD4FF4804095
:100B900000F0AAFD4FF4004000F0A6FD04F049FA71
:100BA00010BD000070B506460D46F46B2868606005
:100BB0000021A1610C2161610021E161287900F02F
:100BC0000F00082802D0092807D102E00021A16007
:100BD00006E04FF48051A16002E00021A16000BF57
:100BE00000BF2879C0F3011010B1012807D102E03D
:100BF0000021E16006E04FF40051E16002E00021D5
:100C0000E16000BF00BF2879C0F3811020B1012846
:100C100005D002280BD106E0002121610AE04FF443
:100C2000C061216106E04FF48061216102E0002192
:100C3000216100BF00BF204602F059F908B1012030
:100C400070BD0020FCE7F0B503460C46D96B102CB4
:100C500013D0112C25D191F9700000F01F06012549
:100C6000B5407B4E470946F8275000BF086800682A
:100C700020F020000D68286013E091F9700000F06A
:100C80001F060125B5404609B60006F1E026C6F864
:100C9000005100BF0868006840F020000D6828601F
:100CA00000BF00BF0020F0BD02460B46D16B00BF65
:100CB0000868C069C0F3C0100028F9D0086803852F
:100CC000012070470146CA6B4FF0FF301368DB69A3
:100CD000C3F3401313B113689B8CD8B2704710B59F
:100CE0005C4C04F099F92068C069C0F3401058B119
:100CF0002068006800F0200030B10121564806F05D
:100D000080FC20202168086204F093F910BD10B522
:100D100086B004465149206888422BD100BF504814
:100D2000806940F480404E4988610846806900F43B
:100D30008040009000BF00BF00BF0846406940F4FB
:100D4000003048610846406900F40030009000BF60
:100D500000BF4FF4C0600190022002900120039078
:100D6000032004900720059001A94FF0904000F067
:100D700041FB2DE03B492068884229D100BF38481B
:100D8000C06940F400303649C8610846C06900F4C3
:100D90000030009000BF00BF00BF0846406940F42B
:100DA000003048610846406900F40030009000BF00
:100DB00000BF0C200190022002900120039003202C
:100DC00004900720059001A94FF0904000F012FB1D
:100DD00006B010BD10B504462049206888420CD1E9
:100DE0001F48806920F480401D4988614FF4C0612C
:100DF0004FF0904000F0D1FB0EE01A492068884285
:100E00000AD11748C06920F400301549C8610C2187
:100E10004FF0904000F0C1FB10BD1CB5124903C952
:100E2000CDE900010B4C0D482060252084F87000AE
:100E30000E48094908640846DDE90012C0E91112AC
:100E4000234640F203120AA106F0BAFB00201CBDA3
:100E500080E100E0080200207C0200200038014010
:100E6000001002400044004080D600086CD6000804
:100E700075617274310000003C48006840F47000F5
:100E80003A4908603A48006840F001003849086073
:100E900008464068374908403549486008460068B8
:100EA00035490840324908600846006820F480202F
:100EB00008600846406820F4FE0048600846C06AA2
:100EC00020F00F00C8620846006B2C4908402849F2
:100ED000086300208860C80324498039086070478F
:100EE00030B50021002000220023214C646804F06A
:100EF0000C0121B1042906D0082925D107E0204C96
:100F0000204D2C6024E01E4C1E4D2C6020E0184C1F
:100F1000646804F47010164C646804F4803202248F
:100F200004EB904022B9184C4443164D2C600AE063
:100F30000F4CE46A04F00F04631C114CB4FBF3F48F
:100F40004443104D2C6003E00D4C0E4D2C6000BF4F
:100F500000BF074C6468C4F303140C4D295D094CB1
:100F60002468CC40074D2C6030BD000088ED00E0C7
:100F7000001002400CC07FF8FFFFF6FECCFC00FF23
:100F800000127A00C800002000093D0088D6000841
:100F90000948804709480047FEE7FEE7FEE7FEE70D
:100FA000FEE7FEE7FEE7FEE7FEE7FEE70448054949
:100FB000054A064B70470000790E000889010008B9
:100FC000881B002088210020881D0020881D00200B
:100FD000704770B504464F4800684FF47A71B0FB13
:100FE000F1F5284600F03CF900222146501E00F0A1
:100FF000C1F8002070BD10B54748006840F01000EF
:1010000045490860032000F0A3F80020FFF7E7FA45
:10101000FFF7FDFA002010BD704710B54FF0FF300C
:101020003E49086100200861401EC8600020C86079
:10103000401E886200208862FFF7EEFF002010BD8E
:1010400037480068401C36490860704734480068DB
:10105000704731B5FFF7FAFF0546009C601C00B1F0
:10106000641C00BFFFF7F2FF401BA042FAD338BD5B
:101070004FF0E020006920F002004FF0E02108610D
:1010800070474FF0E020006940F002004FF0E0218F
:10109000086170472348704723480068000C704778
:1010A00021480068C0F30B00704720480068704773
:1010B0001E48001D006870471C48083000687047D3
:1010C0001948406840F001001749486070471648C9
:1010D000406820F001001449486070471248406899
:1010E00040F002001049486070470F48406820F007
:1010F00002000D49486070470B48406840F004000A
:101100000949486070470848406820F004000649D3
:1011100048607047C80000200020024000100240D4
:10112000CC00002000000501002004E0ACF7FF1F08
:1011300010B5002807DA0A07140EA94A00F00F03B9
:101140001B1FD45403E00A07130EA64A135410BD04
:1011500000BF00F00702A24B0C3B19684FF6FF03DB
:101160001940A14B0B4343EA02219D4B0C3B1960F4
:1011700000BF70472DE9F05F80460D4616460027F8
:1011800000F027F9074639462A46334601F00700A2
:10119000C0F1070ABAF1040F02D94FF0040A01E0C6
:1011A000C0F1070AD14600F1040ABAF1070F02D2D2
:1011B0004FF0000A01E0A0F1030AD4464FF0010A03
:1011C0000AFA09FAAAF1010A0AEA020A0AFA0CFA68
:1011D0004FF0010B0BFA0CFBABF1010B0BEA030B0D
:1011E0004AEA0B0421464046FFF7A2FFBDE8F09F04
:1011F00000BF00F01F02012191404209920002F15C
:10120000E022C2F8001100BF704700BF00F01F02CB
:1012100001219140754A430942F8231000BF7047ED
:1012200000BF00BF00BF00BF00BFBFF34F8F00BFB4
:1012300000BF00BF6A480C38006800F4E0606A49EB
:101240000843001D66490C39086000BF00BF00BF9D
:10125000BFF34F8F00BF00BF00BF00BF00BFFDE75F
:1012600070B504462546681EB0F1807F01D3012089
:101270000FE0681E4FF0E02148610F214FF0FF3072
:10128000FFF756FF00204FF0E0218861072008613A
:10129000002070BD10B500F09CF810BD2DE9F043A2
:1012A00004462046002808DA4D4F00F00F0CACF140
:1012B000040C17F80C703F0902E04A4F3F5C3F09ED
:1012C0003D460E4606F00700C0F10708B8F1040FCE
:1012D00002D94FF0040801E0C0F10708C44600F14C
:1012E0000408B8F1070F02D24FF0000801E0A0F1A6
:1012F0000308474625FA07F84FF0010909FA0CF9E7
:10130000A9F1010908EA0908C2F800804FF00108B4
:1013100008FA07F8A8F1010808EA0508C3F80080F0
:1013200000BFBDE8F08300BF00F01F020121914023
:101330002E4A8032430942F8231000BF704710B58F
:1013400001460846294A8032430952F8232000F01A
:101350001F040123A3401A400AB1012200E0002229
:10136000104610BD00BF00F01F0201219140204A2D
:10137000430942F8231000BF704710B501460846E4
:101380001B4A8032430952F8232000F01F04012336
:10139000A3401A400AB1012200E00022104610BD0D
:1013A000042808D14FF0E021096941F004014FF011
:1013B000E022116107E04FF0E021096921F004010A
:1013C0004FF0E02211617047704710B5FFF7FCFF46
:1013D00010BD03480C380068C0F3022070470000BD
:1013E00018ED00E000E400E00000FA0580E100E014
:1013F00080E200E078B50346002200240020C6E029
:10140000012696400D6805EA0604002C72D04D684E
:10141000022D02D04D68122D13D1D60803F12005FC
:1014200055F826005507EE0E0F25B540A843560780
:10143000F60E0D69B5402843D60803F1200545F89E
:101440002600186856000325B540A8430D7905F01D
:1014500003055600B540284318604D68012D08D09B
:101460004D68022D05D04D68112D02D04D68122D0A
:1014700013D1986856000325B540A8435600CD689F
:10148000B54028439860586801259540A8430D79D8
:10149000C5F30015954028435860D86856000325C9
:1014A000B540A84356008D68B5402843D8604D68C4
:1014B00005F08055B5F1805F68D100BF914DAD69F1
:1014C00045F001058F4EB5613546AD6905F0010562
:1014D000009500BF00BF4FEAB635960855F82600C4
:1014E00095072E0F0F25B540A843B3F1904F02D1B9
:1014F000002510E04AE0844DAB4201D101250AE00D
:10150000824DAB4201D1022505E0814DAB4201D1B4
:10151000032500E005259607360FB54028437D4D8D
:10152000960845F826007C4D2868A0434D6805F4D0
:101530008035B5F5803F00D12043774D28602D1DC3
:101540002868A0434D6805F40035B5F5003F00D18B
:101550002043714D2D1D28602D1D2868A0434D6826
:1015600005F48015B5F5801F00D120436A4D08357C
:1015700028602D1D2868A0434D6805F40015B5F5B9
:10158000001F00D12043644D0C352860521C0D68AB
:10159000D540002D7FF434AF78BDF0B502460B4640
:1015A00000200021002471E00125854005EA0301A7
:1015B00000296AD0156847000326BE40B543156070
:1015C000C60802F1200555F826504607F70E0F26EB
:1015D000BE40B543C70802F1200646F8275095687B
:1015E00047000326BE40B5439560556801268640F6
:1015F000B5435560D56847000326BE40B543D56066
:10160000444D860855F8264085072E0F0F25B54016
:101610002C40B2F1904F01D100250FE03A4DAA4283
:1016200001D101250AE0394DAA4201D1022505E088
:10163000374DAA4201D1032500E005258607360F64
:10164000B540A54221D185072E0F0F2505FA06F4D6
:10165000304D860855F82650A5432E4E870846F88B
:1016600027502D4D2D688D432B4E3560351D2D682F
:101670008D43361D3560351D2D688D43361D356013
:10168000351D2D688D43361D3560401C23FA00F54D
:10169000002D89D1F0BD024613690B400BB101202A
:1016A00000E0002070470AB1816100E0816270476C
:1016B00042694A404261704708B502464FF48030A3
:1016C00000900098084300900098D061D161009884
:1016D000D061D0690090D06900F4803008B100205A
:1016E00008BD0120FCE7704710B504460A481430D5
:1016F0000068204028B10848143004602046FFF7F5
:10170000C0F910BD00100240000400480008004865
:10171000000C00480800014000040140FE48006839
:1017200040F08100FC49086008464068FB490840D9
:10173000F949486008460068F9490840F6490860D8
:101740000846006820F48020086000204860C862D5
:1017500008638860F348F44908607047F8B50446A8
:101760000025207800F0010000287BD0EA4840687E
:1017700000F00C0004280CD0E748406800F00C0092
:10178000082845D1E448406800F48030B0F5803F37
:101790003ED12020010391FAA1F1B1FA81F1084371
:1017A0000121B1EB601F02D1DB4800681DE0202061
:1017B000010391FAA1F1B1FA81F108430221B1EBE1
:1017C000601F02D1D448006A0FE02020010391FA83
:1017D000A1F1B1FA81F108430421B1EB601F02D1FC
:1017E000CD48406801E0CC48406A20210A0392FAC3
:1017F000A2F2B2FA82F2114301F01F0201219140DC
:1018000008400028B1D0606800282BD10120F8BD25
:1018100000BF6068B0F5803F06D1BF48006840F463
:101820008030BD49086029E0606858B9BA4800684E
:1018300020F48030B84908600846006820F4802011
:1018400008601BE06068B0F5A02F0CD1B2480068BA
:1018500040F48020B04908600846006840F48030B9
:1018600008600BE0A1E0AC48006820F48030AA4991
:1018700008600846006820F48020086000BFA64881
:10188000C06A20F00F00A1680843A349C8626068DD
:10189000A0B3FFF7DBFB054606E0FFF7D7FB401BD5
:1018A000642801D90320B2E72020010391FAA1F1B5
:1018B000B1FA81F108430121B1EB601F02D19648D2
:1018C00000681EE02020010391FAA1F1B1FA81F134
:1018D00008430221B1EB601F02D18F48006A10E07B
:1018E0002020010391FAA1F1B1FA81F1084304210A
:1018F000B1EB601F03D18848406802E010E08648E1
:10190000406A20210A0392FAA2F2B2FA82F211434B
:1019100001F01F020121914008400028BDD044E0A1
:10192000FFF794FB054606E0FFF790FB401B642899
:1019300001D903206BE72020010391FAA1F1B1FA4C
:1019400081F108430121B1EB601F02D172480068A8
:101950001DE02020010391FAA1F1B1FA81F10843C1
:101960000221B1EB601F02D16B48006A0FE020201A
:10197000010391FAA1F1B1FA81F108430421B1EB1D
:10198000601F02D16448406801E06348406A20213A
:101990000A0392FAA2F2B2FA82F2114301F01F0294
:1019A0000121914008400028BED1207800F00200BB
:1019B00002285CD15848406800F00C0050B15648ED
:1019C000406800F00C00082852D15348406800F4E9
:1019D0008030E8BB2020022191FAA1F1B1FA81F117
:1019E00008430121B1EB601F02D14B4800681DE0A4
:1019F0002020022191FAA1F1B1FA81F108430221DC
:101A0000B1EB601F02D14448006A0FE020200221A0
:101A100091FAA1F1B1FA81F108430421B1EB601F01
:101A200002D13D48406801E03B48406A2021022243
:101A300092FAA2F2B2FA82F2114301F01F020121DE
:101A40009140084028B12069012802D00120DEE63B
:101A50000EE03148006820F0F800F82292FAA2F275
:101A6000B2FA82F26169914008432B490860BAE0FA
:101A7000206970B3012191FAA1F0B0FA80F02B4AED
:101A800042F82010FFF7E2FA054606E0FFF7DEFA1B
:101A9000401B022801D90320B9E62020022191FA37
:101AA000A1F1B1FA81F108430121B1EB601F02D12C
:101AB000194800681EE02020022191FAA1F1B1FA34
:101AC00081F108430221B1EB601F03D11248006A83
:101AD00010E03AE02020022191FAA1F1B1FA81F15F
:101AE00008430421B1EB601F02D10B48406801E0BC
:101AF0000948406A2021022292FAA2F2B2FA82F246
:101B0000114301F01F020121914008400028BDD07F
:101B1000014800680CE00000001002400CC0FFF813
:101B2000FFFFF6FE00127A00C800002000004242CB
:101B300020F0F800F82292FAA2F2B2FA82F2616979
:101B400091400843FE4908604DE00020012191FAD0
:101B5000A1F1B1FA81F1FB4A42F82100FFF776FAD0
:101B6000054606E0FFF772FA401B022801D9032060
:101B70004DE62020022191FAA1F1B1FA81F108434A
:101B80000121B1EB601F02D1ED4800681DE020206B
:101B9000022191FAA1F1B1FA81F108430221B1EBDE
:101BA000601F02D1E648006A0FE02020022191FA6E
:101BB000A1F1B1FA81F108430421B1EB601F02D118
:101BC000DF48406801E0DE48406A2021022292FAA4
:101BD000A2F2B2FA82F2114301F01F0201219140F8
:101BE00008400028BED1207800F00800082851D114
:101BF000A06980B3012090FAA0F1B1FA81F1D14A35
:101C000002EB8101C1F88004FFF720FA054606E0E7
:101C1000FFF71CFA401B022801D90320F7E56020DA
:101C2000022191FAA1F1B1FA81F108430121B1EB4E
:101C3000601F02D1C24800681EE06020022191FAB4
:101C4000A1F1B1FA81F108430221B1EB601F03D188
:101C5000BB48006A10E01EE06020022191FAA1F169
:101C6000B1FA81F108430421B1EB601F02D1B448FD
:101C7000406801E0B248406A6021022292FAA2F272
:101C8000B2FA82F2114301F01F0201219140084093
:101C90000028BDD04FE00020012191FAA1F1B1FA56
:101CA00081F1A84A02EB8101C1F88004FFF7CEF967
:101CB000054606E0FFF7CAF9401B022801D90320B8
:101CC000A5E56020022191FAA1F1B1FA81F1084362
:101CD0000121B1EB601F02D1994800681DE060202E
:101CE000022191FAA1F1B1FA81F108430221B1EB8D
:101CF000601F02D19248006A0FE06020022191FA31
:101D0000A1F1B1FA81F108430421B1EB601F02D1C6
:101D10008B48406801E08A48406A6021022292FABA
:101D2000A2F2B2FA82F2114301F01F0201219140A6
:101D300008400028BED1207800F00400042873D1A8
:101D400000267F48C06900F0805070B900BF7C4811
:101D5000C06940F080507A49C8610846C06900F007
:101D60008050009000BF00BF01267748006800F453
:101D70008070B0B97448006840F48070724908609F
:101D8000FFF764F9054606E0FFF760F9401B642899
:101D900001D903203BE56C48006800F480700028FE
:101DA000F2D000BFE068012806D16548006A40F023
:101DB00001006349086227E0E06858B96048006A9A
:101DC00020F001005E4908620846006A20F0040025
:101DD000086219E0E06805280BD15948006A40F014
:101DE0000400574908620846006A40F00100086292
:101DF0000AE05348006A20F0010051490862084691
:101E0000006A20F00400086200BFE068B8B3FFF782
:101E10001DF9054609E0FFF719F9401B41F2883129
:101E2000884202D90320F2E492E04020022191FA94
:101E3000A1F1B1FA81F108430121B1EB601F02D198
:101E40003F4800681EE04020022191FAA1F1B1FA5A
:101E500081F108430221B1EB601F02D13848006ACA
:101E600010E04020022191FAA1F1B1FA81F108437A
:101E70000421B1EB601F03D13148406802E010E05B
:101E80002F48406A4021022292FAA2F2B2FA82F26C
:101E9000114301F01F020121914008400028BAD0EF
:101EA00046E0FFF7D3F8054608E0FFF7CFF8401B00
:101EB00041F28831884201D90320A8E44020022160
:101EC00091FAA1F1B1FA81F108430121B1EB601F50
:101ED00002D11B4800681DE04020022191FAA1F1C7
:101EE000B1FA81F108430221B1EB601F02D114481D
:101EF000006A0FE04020022191FAA1F1B1FA81F1CC
:101F000008430421B1EB601F02D10D48406801E095
:101F10000B48406A4021022292FAA2F2B2FA82F2FF
:101F2000114301F01F020121914008400028BCD15B
:101F3000012E0CD10248C06920F08050004905E014
:101F4000001002400000424200700040C86100BF23
:101F5000E069002875D0F648406800F00C000828B9
:101F600070D0E06902286ED100204FF0807191FAA4
:101F7000A1F1B1FA81F1EF4A42F82100FFF766F8CA
:101F8000054606E0FFF762F8401B022801D903204E
:101F90003DE42020010591FAA1F1B1FA81F1084355
:101FA0000121B1EB601F02D1E14800681DE0202053
:101FB000010591FAA1F1B1FA81F108430221B1EBD7
:101FC000601F02D1DA48006A0FE02020010591FA73
:101FD000A1F1B1FA81F108430421B1EB601F02D1F4
:101FE000D348406801E0D248406A20210A0592FAAD
:101FF000A2F2B2FA82F2114301F01F0201219140D4
:1020000008400028BED1D4E908100843C8494968EF
:1020100021F474110843C64948600121080690FA6A
:10202000A0F0B0FA80F0C34A42F82010FFF70EF893
:10203000054609E0FFF70AF8401B022804D90320EF
:1020400031E48EE08BE03AE02020010591FAA1F125
:10205000B1FA81F108430121B1EB601F02D1B4480C
:1020600000681DE02020010591FAA1F1B1FA81F18B
:1020700008430221B1EB601F02D1AD48006A0FE0B6
:102080002020010591FAA1F1B1FA81F10843042160
:10209000B1EB601F02D1A648406801E0A448406A45
:1020A00020210A0592FAA2F2B2FA82F2114301F05B
:1020B0001F020121914008400028BBD051E00021BF
:1020C0004FF0807090FAA0F0B0FA80F0994A42F890
:1020D0002010FEF7BBFF054606E0FEF7B7FF401BEA
:1020E000022801D9032025E42020010591FAA1F15D
:1020F000B1FA81F108430121B1EB601F02D18C4894
:1021000000681DE02020010591FAA1F1B1FA81F1EA
:1021100008430221B1EB601F02D18548006A0FE03D
:102120002020010591FAA1F1B1FA81F108430421BF
:10213000B1EB601F02D17E48406801E07C48406AF4
:1021400020210A0592FAA2F2B2FA82F2114301F0BA
:102150001F020121914008400028BED101E001206A
:1021600075E4002073E470B50021002400220023F0
:1021700000206F4D696801F00C0565B3042D02D095
:10218000082D27D101E06C4827E001F470154FF4C9
:10219000701696FAA6F6B6FA86F6F540674E735DA7
:1021A000634DED6A05F00F050F2696FAA6F6B6FA0E
:1021B00086F6F540624E745D01F480352DB15E4DBA
:1021C000B5FBF4F505FB03F202E05E4D03FB05F2FF
:1021D000104602E000BF584800BF00BF70BD70B598
:1021E00004460D4600265848006800F00700A84243
:1021F0000ED25548006820F0070028435249086075
:102200000846006800F00700A84201D0012070BD18
:10221000207800F00200022807D14548406820F0ED
:10222000F000A168084342494860207800F00100AE
:1022300000287CD0606801283BD12020010391FA5E
:10224000A1F1B1FA81F108430121B1EB601F02D184
:10225000374800681DE02020010391FAA1F1B1FA8E
:1022600081F108430221B1EB601F02D13048006ABE
:102270000FE02020010391FAA1F1B1FA81F10843A6
:102280000421B1EB601F02D12948406801E02848D1
:10229000406A20210A0392FAA2F2B2FA82F21143B2
:1022A00001F01F02012191400840002878D101204F
:1022B000ADE76068022849D12020010591FAA1F11B
:1022C000B1FA81F108430121B1EB601F02D1184836
:1022D00000681DE02020010591FAA1F1B1FA81F119
:1022E00008430221B1EB601F02D11148006A0FE0E0
:1022F0002020010591FAA1F1B1FA81F108430421EE
:10230000B1EB601F02D10A48406801E00848406A0A
:1023100020210A0592FAA2F2B2FA82F2114301F0E8
:102320001F02012191400840D0BB01206FE78CE0E3
:10233000001002400000424200127A00A0D60008BD
:10234000B0D6000800093D000020024020200221F4
:1023500091FAA1F1B1FA81F108430121B1EB601FBB
:1023600002D1DB4800681EE02020022191FAA1F191
:10237000B1FA81F108430221B1EB601F02D1D448C8
:10238000006A10E02020022191FAA1F1B1FA81F156
:1023900008430421B1EB601F03D1CD48406802E03F
:1023A00010E0CB48406A2021022292FAA2F2B2FA4F
:1023B00082F2114301F01F0201219140084008B947
:1023C000012024E7C248406820F003006168084308
:1023D000BF494860FEF73AFE06466068012810D102
:1023E00008E0FEF733FE801B41F28831884201D9B4
:1023F00003200CE7B648406800F00C000428F0D138
:1024000023E06068022810D108E0FEF71FFE801B61
:1024100041F28831884201D90320F8E6AC4840688F
:1024200000F00C000828F0D10FE008E0FEF70EFEE7
:10243000801B41F28831884201D90320E7E6A44895
:10244000406800F00C000028F0D1A248006800F0BD
:102450000700A8420ED99F48006820F007002843D3
:102460009C4908600846006800F00700A84201D0B7
:102470000120CCE6207800F00400042807D194481D
:10248000406820F4E060E1680843914948602078A2
:1024900000F00800082808D18D48406820F46050FA
:1024A000216940EAC1008A494860FFF75CFE88491B
:1024B000496801F0F001F02292FAA2F2B2FA82F237
:1024C000D140854A515CC840844908600020FEF72D
:1024D00086F800209BE670B586B006460D46144689
:1024E0000220029003200490002003904FF480709B
:1024F00001900020059000BF7548406940F400300D
:10250000734948610846406900F40030009000BFFC
:1025100000BF01A94FF09040FEF76CFF6C48406887
:1025200020F0EE4045EA040108436949486006B0DE
:1025300070BD0120C10491FAA1F1B1FA81F1684A9C
:1025400042F82100704700204FF4002191FAA1F1D8
:10255000B1FA81F1624A42F8210070475F48006891
:10256000704700B5FFF7FAFF5949496801F4E06187
:102570004FF4E06292FAA2F2B2FA82F2D140594AE2
:10258000515CC84000BD00B5FFF7E8FF50494968FD
:1025900001F460514FF4605292FAA2F2B2FA82F260
:1025A000D140504A515CC84000BD0F2101604849EC
:1025B000096801F48021B1F5802F03D14FF4A021E7
:1025C00041600CE04249096801F48031B1F5803F77
:1025D00003D14FF48031416001E0002141603C496A
:1025E000C96A01F00F0181603949096801F00101F0
:1025F00011B10121016101E0002101613449096843
:1026000001F0F801F82292FAA2F2B2FA82F2D14075
:1026100041612F49096A01F00401042902D1052111
:10262000C16009E02A49096A01F0010111B10121E3
:10263000C16001E00021C1602549496A01F0010142
:1026400011B10121816101E0002181612049096806
:1026500001F08071B1F1807F02D10221C16101E0FE
:102660000121C1611A49496801F4803202621849A6
:10267000496801F47012426270470F220260144AE6
:10268000526802F003024260114A526802F0F002FE
:1026900082600F4A526802F4E062C2600C4A5268DB
:1026A00002F46052D20802610A4A126802F007027C
:1026B0000A607047704710B50548806800F08000D8
:1026C000802804D1FFF7F6FF80200149887210BDF1
:1026D000001002400020024088D60008C8000020F8
:1026E0000000424298D60008F8B5044600260025AE
:1026F000206800F48030B0F5803F74D10027FD4899
:10270000C06900F0805070B900BFFA48C06940F05D
:102710008050F849C8610846C06900F080500090B8
:1027200000BF00BF0127F448006800F48070B0B912
:10273000F148006840F48070EF490860FEF786FCBD
:10274000064606E0FEF782FC801B642801D90320C0
:10275000F8BDE948006800F480700028F2D0E54830
:10276000006A00F44075002D6BD0A08800F4407022
:10277000A84266D0DF48006A20F4407501200104B9
:1027800091FAA1F1B1FA81F1DC4A02EB8101C1F8C1
:1027900000040021000490FAA0F0B0FA80F002EBEF
:1027A0008000C0F80014D348056205F00100B8B3FA
:1027B000FEF74CFC064608E0FEF748FC801B41F2A1
:1027C0008831884201D90320C2E74020022191FAD2
:1027D000A1F1B1FA81F108430121B1EB601F03D1EE
:1027E000C44800681FE03CE04020022191FAA1F1BA
:1027F000B1FA81F108430221B1EB601F02D1BD485B
:10280000006A10E04020022191FAA1F1B1FA81F1B1
:1028100008430421B1EB601F03D1B648406802E0D1
:102820000FE0B448406A4021022292FAA2F2B2FAC2
:1028300082F2114301F01F0201219140084000285B
:10284000BAD0AC48006A20F4407061680843A949D6
:102850000862012F04D10846C06920F08050C86189
:1028600000BF207800F0010038B1A248006B20F0D2
:102870000300A16808439F490863207800F0200006
:10288000202807D19B48006B20F01000E168084326
:1028900098490863207800F08000802807D1954887
:1028A000C06A20F4F870216908439249C862208800
:1028B00000F48050B0F5805F07D18E48006B20F4A3
:1028C0008070616908438B490863208800F4804068
:1028D000B0F5804F07D18748006B20F48050A16984
:1028E000084384490863002032E785490160814933
:1028F000096A01F4407141607E49096B01F00301EE
:1029000081607C49096B01F01001C160016841F0F0
:10291000800101607749C96A01F4F87101610168B9
:1029200041F4805101607349096B01F48071416188
:10293000016841F4804101606E49096B01F48051E6
:102940008161704710B50021002200230020694CEE
:10295000646804F47011022404EB9141654C6468CE
:1029600004F4803252B1634CE46A04F00F04631C37
:10297000644CB4FBF3F404FB01F002E0624C01FB95
:1029800004F010BD70B588B0054600260024202252
:102990005E4968460AF0D0FAB5F5805F7ED006DC65
:1029A000012D2ED0202D4DD0802D78D15CE0B5F5B5
:1029B000804F75D0B5F5803FF7D14E48006A00F4DE
:1029C0004074B4F5807F07D14A48006A00F00200E5
:1029D00010B14FF4004613E0B4F5007F07D145482D
:1029E000406A00F0020010B149F6404608E0B4F534
:1029F000407F05D13F48006800F4003000B1444EEC
:102A00008FE03C48006B00F003041CB9FFF7A9FD00
:102A1000064616E0032C06D13648006800F0020096
:102A200008B1384E0DE0012C03D1FFF79CFB0646A0
:102A300007E0022C05D12F48006A00F0020000B127
:102A4000A6036EE02B48006B00F0100434B929484F
:102A5000006800F0020008B12A4E04E0102C02D1F8
:102A6000FFF781FB06465CE02248C06A00F4F87478
:102A700014B92848066818E01E48006800F0007085
:102A800098B1FFF75FFF4FF4F87191FAA1F1B1FA35
:102A900081F124FA01F101F00F0102E006E03FE0CC
:102AA00018E03DF81110B0FBF1F63AE01148006B68
:102AB00000F48074B4F5807F08D10E48006800F0FF
:102AC000007018B1FFF73EFF064602E00CB911484E
:102AD000066826E00748006B00F48054B4F5805F78
:102AE0001AD10448006800F00070A8B1FFF72AFF6F
:102AF000064614E000100240007000400000424210
:102B00002100010000127A0000093D00C0D6000833
:102B100090D00300C80000200CB90448066800E00B
:102B200000BF00BF304608B070BD0000C8000020E4
:102B30002DE9F04104460D4617469846069E21E0D1
:102B4000701CF8B12EB1FEF781FAA0EB0800B0427C
:102B500018D92068006820F4D070216808602068C7
:102B6000806820F0010021688860202084F86900D6
:102B700084F86A0000BF002084F8680000BF0320CA
:102B8000BDE8F0812068C0692840A84201D1012039
:102B900000E00020B842D3D00020F1E738B5044669
:102BA00000250020E066FEF751FA0546206800681F
:102BB00000F0080008280CD16FF07E402B46002260
:102BC0004FF4001100902046FFF7B2FF08B1032038
:102BD00038BD2068006800F0040004280CD16FF0B4
:102BE0007E402B4600224FF4800100902046FFF7E4
:102BF0009FFF08B10320EBE7202084F8690084F8E8
:102C00006A0000BF002084F8680000BF00BFDFE753
:102C100090F8241001F0010139B10168496821F4EC
:102C20000031826A11430268516090F8241001F06B
:102C3000020139B10168496821F48031C26A114347
:102C40000268516090F8241001F0040139B1016864
:102C5000496821F48021026B11430268516090F8A9
:102C6000241001F0080139B10168496821F40041DC
:102C7000426B11430268516090F8241001F010017A
:102C800039B10168896821F48051826B114302686F
:102C9000916090F8241001F0200139B10168896831
:102CA00021F40051C26B11430268916090F8241026
:102CB00001F0400199B10168496821F48011026C6A
:102CC000114302685160016CB1F5801F07D10168A2
:102CD000496821F4C001426C11430268516090F8C8
:102CE000241001F0800139B10168496821F4002104
:102CF000826C11430268516070472DE9F047044629
:102D0000002510260027A846A9462169A068084387
:102D100061690843E16940EA010520680068FE49ED
:102D200008402843216808602068406820F440502B
:102D3000E168084321684860216AA06940EA01050A
:102D40002068806820F4306028432168886000BFD4
:102D5000F2492068884216D1F148006B00F0030068
:102D600030B1012808D0022808D0032808D101E09A
:102D7000002607E0022605E0042603E0082601E01D
:102D8000102600BF0CE0E7492068884201D10026E8
:102D900006E0E5492068884201D1002600E01026BF
:102DA00000BFE069B0F5004F52D1042E2BD005DCF6
:102DB0004EB1012E12D0022E3BD11AE0082E2DD09A
:102DC000102E36D136E0FFF7CCFB4000616800EBF7
:102DD0005100B0FBF1F01FFA80F82EE0FFF7D3FBB3
:102DE0004000616800EB5100B0FBF1F01FFA80F881
:102DF00023E0CE49606801EB50006168B0FBF1F060
:102E00001FFA80F819E0FFF7AEF94000616800EBA7
:102E10005100B0FBF1F01FFA80F80EE04FF4803162
:102E2000606801EB50006168B0FBF1F01FFA80F8B8
:102E300003E000BF4FF0010900BF00BF4FF6F07084
:102E400008EA0007C8F3420007432068C7604AE069
:102E5000042E2CD005DC4EB1012E12D0022E3DD115
:102E60001AE0082E2ED0102E38D138E0FFF779FB6B
:102E7000616800EB5100B0FBF1F080B22168C860DE
:102E800030E0FFF780FB616800EB5100B0FBF1F030
:102E900080B22168C86025E0A549606801EB500058
:102EA0006168B0FBF1F080B22168C8601AE0FFF7FA
:102EB0005AF9616800EB5100B0FBF1F080B2216873
:102EC000C8600FE04FF40041606801EB500061689A
:102ED000B0FBF1F080B22168C86003E000BF4FF0A2
:102EE000010900BF00BF4846BDE8F087704710B534
:102EF00004460CB9012010BDA06900B100E000BF7C
:102F000094F8690028B9002084F868002046FDF78D
:102F1000FEFE242084F869002068006820F001008B
:102F2000216808602046FFF7E8FE012800D1E2E7AB
:102F3000606A10B12046FFF76BFE2068406820F4FD
:102F40009040216848602068806820F02A0021684D
:102F500088602068006840F0010021680860204611
:102F6000FFF71CFEC7E710B504460CB9012010BDE1
:102F700094F8690028B9002084F868002046FDF71D
:102F8000C6FE242084F869002068006820F0010053
:102F9000216808602046FFF7B0FE012800D1E6E76F
:102FA000606A10B12046FFF733FE2068406820F4C5
:102FB0009040216848602068806820F022002168E5
:102FC00088602068806840F0080021688860206878
:102FD000006840F00100216808602046FFF7DEFD30
:102FE000C5E770B504460D460CB9012070BDE06917
:102FF000B0F5004F01D10120F8E7A06808B1012029
:10300000F4E794F8690028B9002084F868002046A5
:10301000FDF77DFE242084F869002068006820F018
:103020000100216808602046FFF767FE012800D1F3
:10303000DCE7606A10B12046FFF7EAFD20684068CF
:1030400020F40060216848602068806820F02A0031
:10305000216888602068406840F4804021684860AA
:103060002068406820F020002843216848602068DC
:10307000006840F00100216808602046FFF78EFDDF
:10308000B4E770B504460E4615460CB9012070BD74
:1030900094F8690028B9002084F868002046FDF7FC
:1030A00036FE242084F869002068006820F00100C2
:1030B000216808602046FFF720FE012800D1E6E7DE
:1030C000606A10B12046FFF7A3FD2068406820F435
:1030D0009040216848602068806820F02A002168BC
:1030E0008860B5F5006F05D12068406866F31F6001
:1030F000216848602068006820F400602843216847
:1031000008602068006840F00100216808602046DF
:10311000FFF744FDBBE70000F369FFEF0038014013
:103120000010024000440040004800400024F40029
:1031300000127A00704710B504460CB9012010BD8A
:10314000242084F869002068006820F001002168CC
:103150000860002021680860216848602168886054
:103160002046FDF737FE0020E06684F8690084F809
:103170006A0000BF84F8680000BF00BFDFE72DE9E8
:10318000F84304460D4616461F464FF0000994F8D2
:103190006900202854D105B116B90120BDE8F88393
:1031A00000BF94F86800012801D10220F6E7012051
:1031B00084F8680000BF00205034E0612120607670
:1031C000FDF744FF814626806680503C21E0B4F83C
:1031D0005200401EA4F852004B4600228021204697
:1031E0000097FFF7A5FC08B10320D7E7A068B0F56A
:1031F000805F0AD1206940B9A846B8F80000C0F342
:10320000080021680885AD1C03E015F8010B216852
:103210000885B4F852000028D9D14B46002240213D
:1032200020460097FFF784FC08B10320B6E7202072
:1032300084F8690000BF002084F8680000BFADE793
:103240000220ABE72DE9F84F04460D461646994695
:103250004FF0000A94F86A0020287AD105B116B917
:103260000120BDE8F88F00BF94F86800012801D163
:103270000220F6E7012084F8680000BF00205834DF
:1032800060612220A074FDF7E1FE82462680668000
:10329000583C00BFA068B0F5805F0AD1206920B912
:1032A00040F2FF10A4F85C001CE0FF20A4F85C00D2
:1032B00018E0A06848B9206918B9FF20A4F85C009C
:1032C00010E07F20A4F85C000CE0A068B0F1805F03
:1032D00008D1206918B97F20A4F85C0002E03F20E3
:1032E000A4F85C0000BFB4F85C8024E0B4F85A0095
:1032F000401EA4F85A005346002220212046CDF853
:103300000090FFF715FC08B10320AAE7A068B0F50C
:10331000805F09D1206938B92F462068808C00EA87
:1033200008003880AD1C06E02068808C08F0FF01A2
:10333000084005F8010BB4F85A000028D6D1202027
:1033400084F86A0000BF002084F8680000BF88E7A6
:10335000FFE7022085E710B5034693F869002028AF
:1033600024D101B10AB9012010BD00BF93F8680053
:10337000012801D10220F7E7012083F8680000BF8F
:1033800043F84C1F9A80DA80002018622120587779
:103390004C3B00BF002083F8680000BF186800683D
:1033A00040F080001C6820600020DDE70220DBE7A1
:1033B00010B5034693F86A00202855D101B10AB927
:1033C000012010BD00BF93F86800012801D1022040
:1033D000F7E7012083F8680000BF5965A3F858207B
:1033E000A3F85A2000BF9868B0F5805F0AD1186929
:1033F00020B940F2FF10A3F85C001CE0FF20A3F806
:103400005C0018E0986848B9186918B9FF20A3F85B
:103410005C0010E07F20A3F85C000CE09868B0F13D
:10342000805F08D1186918B97F20A3F85C0002E01A
:103430003F20A3F85C0000BF0020D866222083F85C
:103440006A0000BF002083F8680000BF1868806829
:1034500040F001001C68A0601868006840F490709B
:103460001C6820600020ACE70220AAE770470168D2
:10347000096821F49071026811600168896821F07F
:10348000010102689160202180F86A10704701688C
:10349000096821F0C00102681160202180F86910DC
:1034A000704770B505466C6A94F8690021280AD106
:1034B0002068806800F0800028B10020A4F8520045
:1034C0002046FFF7E4FF94F86A0022280AD120681A
:1034D000806800F0400028B10020A4F85A0020467F
:1034E000FFF7C5FFE06E40F01000E0662046FFF7F2
:1034F000BDFF70BD704770B50446656A2846FFF78A
:10350000F9FF70BD704770B505466C6A28680068A1
:1035100000F0200078B90020A4F8520020688068EC
:1035200020F08000216888602068006840F040003A
:103530002168086002E02046FFF7E4FF70BD70B527
:1035400004460E46154694F8690020283CD106B181
:103550000DB9012070BD00BF94F86800012801D1A9
:103560000220F7E7012084F8680000BFE664A4F8B1
:103570005050A4F852500020E066212084F86900E1
:10358000FB48216E8862FB48216EC862FA48216EB2
:1035900008630020216E4863236803F128022B464C
:1035A000E16C206E00F0E1FE40202168086200BF5F
:1035B000002084F8680000BF2068806840F0800028
:1035C000216888600020C5E70220C3E7704770B516
:1035D0000446656A2846FFF7F9FF70BD704770B56D
:1035E00005466C6A2868006800F02000B8B9002021
:1035F000A4F85A002068006820F4807021680860F0
:103600002068806820F00100216888602068806858
:1036100020F0400021688860202084F86A0020465D
:10362000FFF7DCFF70BD70B504460E46154694F8F2
:103630006A00202843D106B10DB9012070BD00BF3A
:1036400094F86800012801D10220F7E7012084F8EE
:10365000680000BF6665A4F858500020E06622208C
:1036600084F86A00C548616E8862C548616EC862A8
:10367000C148616E08630020616E4863236803F1EE
:1036800024012B46626D606E00F06FFE00BF0020CB
:1036900084F8680000BF2068006840F480702168EA
:1036A00008602068806840F0010021688860206818
:1036B000806840F04000216888600020BEE702205A
:1036C000BCE7014600BF91F86800012801D1022043
:1036D0007047012081F8680000BF91F86900212837
:1036E0000AD10868806800F0800028B10868806806
:1036F00020F080000A68906091F86A00222816D1B4
:103700000868806800F0400088B10868006820F40C
:1037100080700A6810600868806820F001000A68FC
:1037200090600868806820F040000A68906000BFE0
:10373000002081F8680000BF00BFC9E7014600BF54
:1037400091F86800012801D102207047012081F81A
:10375000680000BF91F86900212805D108688068D9
:1037600040F080000A68906091F86A00222814D125
:1037700008200A6810620868006840F480700A68CF
:1037800010600868806840F001000A68906008686E
:10379000806840F040000A68906000BF002081F817
:1037A000680000BF00BFD0E710B5044694F8690078
:1037B000212812D12068806800F0800068B120685C
:1037C000806820F0800021688860206E10B1206E33
:1037D00000F019FE2046FFF75AFE94F86A002228EE
:1037E00012D12068806800F0400068B120688068CD
:1037F00020F0400021688860606E10B1606E00F0BB
:1038000002FE2046FFF733FE002010BD10B504462F
:103810002068006820F4F0702168086020688068E3
:1038200020F00100216888602068806800F0800036
:1038300068B12068806820F0800021688860206E70
:1038400028B10020216E4863206E00F0DCFD206866
:10385000806800F0400068B12068806820F0400077
:1038600021688860606E28B10020616E4863606ED8
:1038700000F0C9FD00204C34E080E0810F2054F8B6
:103880004C1C086220206077A077002020624C3C0E
:1038900010BD10B504462068006820F0C000216803
:1038A00008602068806800F0800068B12068806847
:1038B00020F0800021688860206E28B10020216EF1
:1038C0004863206E00F09FFD0020A4F852002020E5
:1038D00084F86900002010BD10B504462068006817
:1038E00020F49070216808602068806820F0010052
:1038F000216888602068806800F0400068B1206816
:10390000806820F0400021688860606E28B1002047
:10391000616E4863606E00F076FD0020A4F85A00E6
:103920000F2021680862202084F86A00002010BD62
:10393000704770B505466C6A0020616E4863206E62
:1039400018B1206E406B00B170BD00204C34E08097
:10395000E08120620F2054F84C1C08622020607720
:10396000A0774C3C2046FFF7E3FF00BFECE70000E8
:1039700007350008F7340008A3340008DF350008D5
:10398000CF35000870B505466C6A0020216E48638B
:10399000606E18B1606E406B00B170BD00204C3499
:1039A000E080E08120620F2054F84C1C0862202047
:1039B0006077A0774C3C2046FFF7BAFF00BFECE7EA
:1039C00070B5044601252068006820F4F070216875
:1039D00008602068806820F0010021688860206EFF
:1039E00058B12068806800F0800018B1FE48216E50
:1039F000486302E00020216E4863606E58B1206881
:103A0000806800F0400018B1F848616E486302E039
:103A10000020616E48632068806800F0800080B1FB
:103A20002068806820F0800021688860206E40B1A6
:103A3000206E00F004FD18B10020216E486300E004
:103A400000252068806800F0400088B12068806808
:103A500020F0400021688860606E48B1606E00F020
:103A6000EEFC20B10020616E4863012500E00025D6
:103A7000012D0FD100204C34E080E08120620F2026
:103A800054F84C1C086220206077A0774C3C2046FC
:103A9000FFF74EFF002070BD704770B505466C6A99
:103AA0000020A4F85200202084F869002046FFF787
:103AB000F3FF70BD10B504462068006820F0C00018
:103AC000216808602068806800F08000E0B120680C
:103AD000806820F0800021688860206E50B1C44862
:103AE000216E4863206E00F0AAFCB0B1206E416BDD
:103AF000884712E00020A4F85200202084F86900D2
:103B00002046FFF7C9FF08E00020A4F8520020205B
:103B100084F869002046FFF7BFFF002010BD704702
:103B200070B505466C6A0020A4F85A000F20216881
:103B30000862202084F86A002046FFF7F0FF70BD7D
:103B400010B504462068006820F490702168086071
:103B50002068806820F00100216888602068806803
:103B600000F04000F8B12068806820F04000216833
:103B70008860606E50B19F48616E4863606E00F06F
:103B80005EFCE0B1606E416B884718E00020A4F84D
:103B90005A000F2021680862202084F86A0020461D
:103BA000FFF7BDFF0BE00020A4F85A000F202168AA
:103BB0000862202084F86A002046FFF7B0FF00204A
:103BC00010BD10B504462068006820F04000216850
:103BD0000860202084F869002046FFF793FC00204D
:103BE00010BD014691F8690021282DD1B1F852008D
:103BF00068B90868006820F080000B6818600868E1
:103C0000006840F040000B6818600020704788682A
:103C1000B0F5805F0BD1086948B9CA6C1088C0F351
:103C200008000B681885C86C801CC86405E0CB6C64
:103C3000581CC86418780B681885B1F85200401EEB
:103C4000A1F852000020E1E70220DFE770B5054649
:103C50006C6A0020A4F85A00A4F852002046FFF72E
:103C600005FC70BD2DE9F0410446B4F85C7094F891
:103C70006A00222833D12068858CA068B0F5805F67
:103C800009D1206938B9666D05EA07003080606D9A
:103C9000801C606505E0F8B22840626D511C6165CA
:103CA0001070B4F85A00401E80B2A4F85A00A0B9AF
:103CB0002068006820F4907021680860206880689F
:103CC00020F0010021688860202084F86A002046E6
:103CD000FFF784FC0020BDE8F0810020FBE72068AE
:103CE000806940F00800216888610220F3E72DE92F
:103CF000F04104462068C5692068066805F00F0891
:103D0000B8F1000F0AD105F0200038B106F020000C
:103D100020B12046FFF7A6FFBDE8F0812068876844
:103D2000B8F1000F69D007F0010018B906F49070DF
:103D300000287ED005F0010048B106F4807030B153
:103D4000012021680862E06E40F00100E06605F0A5
:103D5000020048B107F0010030B10220216808627A
:103D6000E06E40F00400E06605F0040048B107F0A2
:103D7000010030B1042021680862E06E40F00200CA
:103D8000E06605F0080060B106F0200010B907F009
:103D9000010030B1082021680862E06E40F00800A0
:103DA000E066E06E40B305F0200028B106F0200088
:103DB00010B12046FFF756FFE06E00F0080020B972
:103DC0002068806800F0400068B32046FFF74FFB92
:103DD0002068806800F0400008B32068806820F008
:103DE00040002168886009E08539000833390008FF
:103DF0009B3A0008213B00081AE01AE0606E50B1BF
:103E00008548616E4863606E00F019FB80B1606E9A
:103E1000416B88470CE02046FFF728FB08E020466E
:103E2000FFF724FB04E02046FFF720FB0020E066BC
:103E300072E705F4801078B107F4800060B14FF4A8
:103E4000801021680862202084F8690084F86A00E4
:103E5000204600F02FF95FE705F0800030B106F052
:103E6000800018B12046FFF7BCFE55E705F0400082
:103E700030B106F0400018B12046FFF7A2FE4BE734
:103E800000BF49E710B5044600BF94F86800012858
:103E900001D1022010BD012084F8680000BF242059
:103EA00084F869002068006840F4005021680860C8
:103EB000202084F869002046FEF770FEEAE710B57E
:103EC000044600BF94F86800012801D1022010BD0B
:103ED000012084F8680000BF242084F8690020686D
:103EE000006820F4005021680860202084F86900F0
:103EF0002046FEF753FEEAE70168896941F00401B4
:103F0000026891617047014600BF91F8680001287E
:103F100001D102207047012081F8680000BF2420F1
:103F200081F869000868006820F00C000A681060D9
:103F30000868006840F008000A681060202081F8D6
:103F4000690000BF002081F8680000BF00BFE1E702
:103F5000014600BF91F86800012801D10220704796
:103F6000012081F8680000BF242081F869000868FA
:103F7000006820F00C000A6810600868006840F0D3
:103F800004000A681060202081F8690000BF00204A
:103F900081F8680000BF00BFE1E7014600BF91F86B
:103FA0006800012801D102207047012081F86800D3
:103FB00000BF242081F869000868806940F0020091
:103FC0000A689061202081F8690000BF002081F814
:103FD000680000BF00BFE7E701460022002391F818
:103FE000692091F86A3042EA030070470146C86EC2
:103FF000704707B50168496821F01001BDF8082035
:104000001143026851609DF80A200168496862F313
:104010001F61026851600EBD4D3C00082DE9F04162
:1040200004460D4616461F464FF0000814B90120FD
:10403000BDE8F08194F8690028B9002084F8680090
:104040002046FCF764FE242084F86900206800689C
:1040500020F00100216808602046FEF74EFE01288E
:1040600000D1E5E7606A10B12046FEF7D1FD206877
:10407000806840F48040216888602068806820F46F
:1040800000402843216888604FEA465848EA0748BC
:10409000206800685B49084040EA08002168086021
:1040A0002068006840F00100216808602046FEF7A3
:1040B00075FDBDE7704777B581B004460025002641
:1040C00000BF94F86800012802D1022004B070BD3E
:1040D000012084F8680000BF242084F8690020686B
:1040E000006820F00100216808602068806820F4E2
:1040F00040100299084321688860029820B9204640
:10410000DDE90212FFF775FF2068006840F001004A
:1041100021680860FCF79AFF06466FF07E40334640
:1041200000224FF4800100902046FEF701FD08B107
:10413000032502E0202084F8690000BF002084F8F5
:10414000680000BF2846C1E7014600BF91F868003B
:10415000012801D102207047012081F8680000BFCA
:10416000242081F869000868006840F002000A68AD
:104170001060202081F8690000BF002081F86800ED
:1041800000BF00BFE7E7014600BF91F868000128C3
:1041900001D102207047012081F8680000BF24206F
:1041A00081F869000868006820F002000A68106061
:1041B000202081F8690000BF002081F8680000BF5E
:1041C00000BFE7E770B504460D460CB9012070BD8D
:1041D000242084F869002068006820F0010021682C
:1041E00008602068406820F010002843216848607B
:1041F0002068006840F00100216808602046FEF752
:10420000CDFCE4E7FFFF00FCFE4A0168891A142296
:10421000B1FBF2F189000164FA490839C1637047C2
:1042200070B5044600250CB9012070BD022084F849
:1042300021002068056843F6F0708543D4E9010148
:104240000843E16808432169084361690843A1699B
:104250000843E16908430543206805602046FFF7ED
:10426000D3FF0020A062E06220636063A0630120AE
:1042700084F82100002084F8200000BFD5E710B5A5
:1042800004460CB9012010BD2068006820F0010030
:104290002168086000202168086021684860216862
:1042A00088602168C8602046FFF7AEFF94F8401090
:1042B00001208840E16B48600020A06384F8210061
:1042C00000BF84F8200000BF00BFDCE730B590F8E5
:1042D00040500124AC40C56B6C6004686360446866
:1042E000102C04D10468A2600468E16003E0046853
:1042F000A1600468E26030BD2DE9F04104460D463E
:1043000016461F464FF0000800BF94F82000012811
:1043100002D10220BDE8F081012084F8200000BF16
:1043200094F82100012817D1022084F821000020F0
:10433000A0632068006820F00100216808603B4607
:10434000324629462046FFF7C1FF2068006840F04A
:1043500001002168086006E000BF002084F820000A
:1043600000BF4FF002084046D4E72DE9F041044673
:104370000D4616461F464FF0000800BF94F8200077
:10438000012802D10220BDE8F081012084F820003C
:1043900000BF94F8210001282CD1022084F82100CC
:1043A0000020A0632068006820F0010021680860F8
:1043B0003B46324629462046FFF788FFE06A30B187
:1043C0002068006840F00E00216808600BE020685B
:1043D000006840F00A00216808602068006820F04A
:1043E0000400216808602068006840F0010021682E
:1043F000086006E000BF002084F8200000BF4FF0F6
:1044000002084046BFE701460868006820F00E0039
:104410000A6810600868006820F001000A681060EF
:1044200091F8402001209040CA6B5060012081F833
:10443000210000BF002081F8200000BF704770B548
:104440000446002594F82100022803D00420A0632C
:1044500001251EE02068006820F00E002168086039
:104460002068006820F001002168086094F840107E
:1044700001208840E16B4860012084F8210000BFE2
:10448000002084F8200000BF606B10B12046616BF3
:104490008847284670BD2DE9F04104460E46154672
:1044A0004FF0000894F82100022809D00420A063EE
:1044B00000BF002084F8200000BF0120BDE8F0818B
:1044C0002068006800F0200020B14FF48070A063E5
:1044D0000120F3E72EB994F84010022000FA01F70A
:1044E00004E094F84010042000FA01F7FCF7AEFD58
:1044F00080462DE0E06B006894F840200821914050
:10450000084080B194F8401001208840E16B486079
:104510000120A06384F8210000BF002084F820005F
:1045200000BF0120CAE7681C90B12DB1FCF78EFDD9
:10453000A0EB0800A8420BD92020A063012084F83A
:10454000210000BF002084F8200000BF0120B5E753
:10455000E06B006838400028CCD04EB994F8401089
:1045600002208840E16B4860012084F8210005E0CA
:1045700094F8401004208840E16B486000BF0020A0
:1045800084F8200000BF00BF98E770B50446E06BD8
:1045900005682068066894F8401004208840284088
:1045A000D0B106F00400B8B12068006800F0200027
:1045B00028B92068006820F004002168086094F899
:1045C000401004208840E16B4860E06A002851D028
:1045D0002046E16A88474DE094F840100220884068
:1045E000284020B306F0020008B32068006800F0FD
:1045F000200058B92068006820F00A00216808608F
:10460000012001E00800024084F8210094F84010E5
:1046100002208840E16B486000BF002084F8200041
:1046200000BFA06A30B32046A16A884722E094F810
:104630004010082088402840E0B106F00800C8B1CA
:104640002068006820F00E002168086094F840108F
:1046500001208840E16B48600120A06384F82100BC
:1046600000BF002084F8200000BF206B10B120465E
:10467000216B884770BD10B50346002400BF93F836
:104680002000012801D1022010BD012083F8200064
:1046900000BF93F82100012812D131B1012906D0C1
:1046A000022906D0032908D105E09A6207E0DA6200
:1046B00005E01A6303E05A6301E0012400BF00E053
:1046C000012400BF002083F8200000BF2046DBE764
:1046D0000246002300BF92F82000012801D10220E9
:1046E0007047012082F8200000BF92F821000128C5
:1046F0001BD1052916D2DFE801F00306090C0F00D3
:104700000020906210E00020D0620DE000201063D5
:104710000AE00020506307E000209062D06210633E
:10472000506301E0012300BF00E0012300BF00202F
:1047300082F8200000BF1846D2E7014691F8210018
:1047400070470146886B704770471948006870478A
:1047500070B5044602F0C8FA0546154804602846BC
:1047600002F0C6FA70BD10B511480068401C10492F
:10477000086001F0D3FE0446206C401E2064206CCB
:1047800018B9E06B206401F069FF02F091F910BDE7
:104790000146002902DA4FF0FF3007E064224A4365
:1047A00002F2E7324FF47A7392FBF3F070470000A5
:1047B000D000002000207047002070470020704784
:1047C0000020704710B5244C02E020688047241D6B
:1047D00022488442F9D310BD10B5204C02E0206875
:1047E0008047241D1E488442F9D310BD10B50446ED
:1047F000FFF7F2FFFBF730FE10BD1CB514200A21B5
:104800004FF480630022CDE90010AFF21F0115A024
:1048100001F0DEFE0446204601F0A1FE1CBD10B5ED
:1048200002F062FAFBF71EFF01F013F802F080F9C4
:1048300001F0B7FCFFF7E1FF02F086F900F0A6F9FE
:1048400001F0C9FC002010BD10B502F04DFAFFF7D1
:10485000E6FF002010BD0000B8DF0008C4DF00083C
:10486000CCDF00086D61696E000000002DE9F041A9
:10487000064601F053FE08B101F048FD082001F0A2
:10488000C0FB05466C6810E0A4F10C070822314615
:10489000384600F000FD38B901F040FE08B101F0E3
:1048A00043FD3846BDE8F0812468281D8442EBD1E1
:1048B00001F034FE08B101F037FD0020F2E770B5D9
:1048C00004460D46164614B94FF0FF3070BD284619
:1048D000FFF7CCFF10B14FF0FF30F7E72A46082171
:1048E000204601F0A0FBE6820020A076208300BFD6
:1048F000ECE710B50446204601F0B3FB002010BDE4
:10490000002070472DE9F04105460E464027374408
:10491000384601F043F904462CB1402200212046DC
:1049200000F0CBFB25752046BDE8F08110B50446AC
:104930002046FFF7DEFF204601F0D8F910BD70B524
:1049400004460025606A90B1A07D00F0100070B9A7
:104950002046616A884705462DB12A4621465BA05C
:1049600000F047FF03E0E08A40F01000E0822846B4
:1049700070BD70B504460E460025A07D00F0100005
:1049800088B9606A58B12046616A8847054635B1E2
:104990002A4621464DA000F02CFF284670BDE08A33
:1049A00040F01000E082A07D00F0080030B1207ED1
:1049B00000F0080010B16FF00600EFE7A06A28B120
:1049C00031462046A26A9047054603E040F60F7044
:1049D000304020830DB1A81D30B9208B40F0080075
:1049E0002083A07E401CA0762846D7E770B50446F9
:1049F0000025A07E08B9681E70BDA07E401EA0766E
:104A0000A07E08B10020F7E7E06A18B12046E16A0D
:104A1000884705460DB1A81D08B900202083284607
:104A2000EAE72DE9F04104460D4616461F46A07EF2
:104A300030B94FF0FF3000F01FFB0020BDE8F081DF
:104A4000206B38B13B46324629462046D4F830C068
:104A5000E047F3E76FF0050000F00EFB0020EDE704
:104A60002DE9F04104460D4616461F46A07E30B99A
:104A70004FF0FF3000F000FB0020BDE8F081606BDC
:104A800038B13B46324629462046D4F834C0E04788
:104A9000F3E76FF0050000F0EFFA0020EDE770B5E6
:104AA00004460D461646A06B28B1324629462046DC
:104AB000A36B984770BD6FF00500FBE70246D1611C
:104AC000002070470246116200207047546F206931
:104AD0006E697469616C697A65206465766963657D
:104AE0003A2573206661696C65642E2054686520E0
:104AF0006572726F7220636F64652069732025642C
:104B00000A00000070B537E002F0EEF8054600F04C
:104B100052F818B32C480068A0F1140404F11400F2
:104B2000D0E900215160D0E90012116040600060BE
:104B300000BF01F0EBFB206F10B12046216F8847CA
:104B4000204601F0D0FA012805D101F0EDFB2846FE
:104B500002F0CEF870BD01F0E7FB03E0284602F05A
:104B6000C7F8F7E7284602F0C3F8A06A01F0BEF8DC
:104B7000204601F0A8FA00BF00F01DF80028C3D1BC
:104B800000BFE7E701E0FFF7BDFFFCE71FB520200E
:104B90001F21C2000D4BCDE90032CDE902100023E8
:104BA0000B4A0CA10D4801F09FFC0C4801F0D7FC0A
:104BB0001FBD0A48704704490868884201D0012097
:104BC00070470020FCE70000680100204803002037
:104BD000854B00087469646C65000000D0020020F9
:104BE0004268116042684A604160086070472DE980
:104BF000F04105460C469046204601F05DFDB8F1B7
:104C0000000F03D0B8F1010F23D105E004F1140126
:104C10002846FFF7E5FF1CE02E680FE0A6F1140719
:104C200094F8350097F83510884206DA04F114013B
:104C300007F11400FFF7D4FF02E03668AE42EDD171
:104C400000BFAE4204D104F114012846FFF7C8FFAB
:104C500000BF00BF0020BDE8F08170B505460EE042
:104C600002F042F806462868A0F114044FF0FF3025
:104C70002063204601F055FC304602F039F8284602
:104C800000F0AFF90028EBD0002070BD2DE9F04115
:104C900004460D4616461F462A460121204601F0CD
:104CA000C2F9204600F0A5F9A68367720020BDE88E
:104CB000F08110B5044604F11400FFF7CEFF204642
:104CC00001F0CFF9002010BD2DE9F04105460E4658
:104CD00017462946012001F0D1F9044614B92046AF
:104CE000BDE8F081204600F084F9A6836772204673
:104CF000F6E710B5044604F11400FFF7AEFF2046B6
:104D000001F0E1F9002010BD73B5054601F0ECFF9C
:104D10000646A88B002806DDA88B401EA8833046D7
:104D200001F0E6FF28E0019828B9304601F0E0FFE5
:104D30006FF001007CBD01F0F1FB04460020206310
:104D40006A7A214605F11400FFF751FF0198002807
:104D500009DD01AA002104F1440001F08DFE04F1F7
:104D6000440001F0FAFD304601F0C2FF01F045FABF
:104D7000206B08B1206BDDE70020DBE710B50446AF
:104D800000212046FFF7C0FF10BD70B50446002586
:104D900001F0AAFF064604F1140000F022F928B938
:104DA00004F1140000F02DF9012502E0A08B401C55
:104DB000A083304601F09CFF012D01D101F01DFAC6
:104DC000002070BD2DE9F04104460E461546012E27
:104DD00010D12F4601F088FF804604F11400FFF740
:104DE0003CFFA783404601F083FF01F006FA002054
:104DF000BDE8F0814FF0FF30FAE770B504460D468C
:104E000016462A460221204601F00DF9204600F000
:104E1000F0F80120A08300202062FF20A07700206E
:104E2000E077667270BD10B5044604F11400FFF718
:104E300014FF204601F015F9002010BD70B505469D
:104E40000E462946022001F019F904460CB9204605
:104E500070BD204600F0CDF80120A0830020206224
:104E6000FF20A0770020E07766722046F0E710B5BB
:104E7000044604F11400FFF7F0FE204601F023F988
:104E8000002010BD73B5044601F048FB054601F053
:104E90002BFF064600202863206AA84203D1E07F4A
:104EA000401CE07749E000BFA08B00280ADDA08B02
:104EB000401EA083256295F83500A077E07F401C56
:104EC000E0773AE0019840B96FF00100286330467E
:104ED00001F00EFF6FF001007CBD95F83500216AEE
:104EE00091F83510884205DA05F135020221206A71
:104EF00001F029FC627A294604F11400FFF777FEDD
:104F00000198002809DD01AA002105F1440001F003
:104F1000B3FD05F1440001F020FD304601F0E8FE4C
:104F200001F06BF9286B28B1286B093000B9BBE799
:104F3000286BD1E701F0D8FE0646304601F0D8FED6
:104F40000020C9E72DE9F0410446002701F0E6FA08
:104F5000054601F0C9FE0646206AA84207D0781E21
:104F60002863304601F0C4FE781EBDE8F081E07F82
:104F7000401EE077E07FF8B9A07F216A91F83510F4
:104F8000884205D004F11E020221206A01F0DBFBF9
:104F900004F1140000F025F878B96069A0F1140557
:104FA000256295F83500A077E07F401CE07704F19A
:104FB000140000F026F8012706E0A08B401CA08317
:104FC00000202062FF20A077304601F091FE012FE3
:104FD00001D101F012F90020C7E703464FF0FF307E
:104FE000704701460868884201D1012070470020BF
:104FF000FCE7014601F114004060006000BF0020A2
:10500000704770B504462068A0F11405284601F0E9
:1050100088FA002070BD000010B501F065FE04465E
:105020000C480078401C0B490870204601F060FED7
:1050300010BD10B501F058FE044606480078401E29
:1050400004490870204601F053FE10BD0148007865
:1050500070470000D400002010B5FFF7F7FF10B133
:10506000FA48006810BD01F059FA044614B9F7482F
:105070000068F7E7206BF5E770B50446FFF7E6FF39
:1050800010B1F248046070BD01F048FA054615B948
:10509000EE480460F7E72C6300BFF4E710B5FFF7B4
:1050A000D5FF08B1E94810BD01F038FA044614B143
:1050B00004F13000F7E7E548F5E7F0B50C460546A2
:1050C000E6B2042A15D300F0030797B9014646EA71
:1050D000062343EA034304E008C108C108C108C12C
:1050E000103A102AF8D201E008C1121F042AFBD29C
:1050F0000D4601E005F8016B171EA2F10102F9D17E
:10510000F0BD2DE9F0410F46164604463D463346B4
:10511000102B28D305F0030C04F003084CEA080C0C
:10512000BCF1000F1FD121462A4610E052F804CBF3
:1051300041F804CB52F804CB41F804CB52F804CB2D
:1051400041F804CB52F804CB41F804CB103B102BB0
:10515000ECD204E052F804CB41F804CB1B1F042B23
:10516000F8D20C46154603E015F801CB04F801CB44
:10517000B3F1000CA3F10103F6D1BDE8F08170B5E5
:105180000C46014623468B4210D29D188D420DD904
:105190001144134405E05D1E2B462E784D1E294612
:1051A0002E70151EA2F10102F5D108E003E013F8FC
:1051B000015B01F8015B151EA2F10102F7D170BD80
:1051C000F0B5034600201C460D4608E026782F78EF
:1051D000F61B301E00D004E0641C6D1C521E002A19
:1051E000F4D800BFF0BD01460A4600E0521C10781A
:1051F0000028FBD1501A7047F0B506460F463846D6
:10520000FFF7F1FF05460DB93046F0BD3046FFF718
:10521000EAFF044609E0641E2A4639463046FFF795
:10522000CFFF08B93046F0E7761CAC42F3DA002035
:10523000EBE730B503460C4600BF13F8011B14F82A
:10524000012B412902DB5A2900DC2031412A02DBF3
:105250005A2A00DC2032914201D10029EDD1881A6E
:1052600030BD70B50346A2B118460C4600BF14F815
:10527000016B00F8016B3EB902E0002500F8015B0C
:10528000551E2A1EF9D102E0551E2A1EEFD100BF7D
:1052900000BF184670BD30B5034600200BE011F882
:1052A000015B1C78641B64B2201E02D113F8015B01
:1052B00005B902E0521E002AF1D100BF30BD0246FE
:1052C00001E0521C491C107818B110780B789842F4
:1052D000F7D010780B78C01A704702460B4611467B
:1052E00000E0491C087810B1881A9842F9D3881A4E
:1052F000704770B504462046FFF775FF451C2846E9
:1053000000F04CFC06460EB9002070BD2A4621462E
:105310003046FFF7F6FE3046F7E770472DE9F04FCD
:1053200085B00D469C46DDE90F740E9B04F04008E5
:10533000B8F1000F02D0DFF8188101E0DFF8148126
:10534000CDF8008004F01008B8F1000F01D024F06F
:10535000010404F00108B8F1000F02D04FF030084A
:1053600001E04FF02008C246002604F00208B8F120
:10537000000F11D0002A02DA2D2652420CE004F070
:105380000408B8F1000F01D02B2605E004F008084E
:10539000B8F1000F00D02026002142B94FF0300BA9
:1053A0008846491C0DF1040909F808B01DE01AE00F
:1053B000E146B9F10A0F08D14FF00A0BB2FBFBFE30
:1053C0000BFB1E28B2FBFBF202E002F00F081209F1
:1053D00000BFDDF8009019F808B08846491C0DF1AF
:1053E000040909F808B0002AE2D1B94200DD0F46ED
:1053F000DB1B04F01108B8F1000F10D116B1002B1F
:1054000000DD5B1E06E0A84203D84FF0200880F8BC
:105410000080401CB3F10008A3F10103F3DC26B1C6
:10542000A84201D806705B1E401C04F01008B8F1B9
:10543000000F0AD104E0A84201D880F800A0401C67
:10544000B3F10008A3F10103F5DC0CE0D800002063
:10545000F1D70008E0D70008A84203D84FF0300881
:1054600080F80080401CB8467F1E8845F4DC08E0C8
:10547000A84205D80DF1040818F8018080F80080D2
:10548000401CB1F10008A1F10101F1DC06E0A842E5
:1054900003D84FF0200880F80080401CB3F10008CA
:1054A000A3F10103F3DC05B0BDE8F08F0146002055
:1054B00009E00B685A1C0A601A7800EB800302EBC3
:1054C0004302A2F130000A681278303A0A2AF0D377
:1054D00070472DE9FF4F89B0804644460A98404402
:1054E000461E464504D24FF0FF36A6EB08000A9050
:1054F0006FE10B980078252806D0B44202D80B98AB
:1055000000782070641C61E1002526E00B98401CA7
:105510000B900B9800782D2802D145F010051CE067
:105520000B9800782B2802D145F0040515E00B9864
:105530000078202802D145F008050EE00B9800788D
:10554000232802D145F0200507E00B980078302889
:1055500002D145F0010500E000E0D7E700BF4FF0C1
:10556000FF370B98007830380A2804D20BA8FFF7D1
:105570009DFF07460EE00B9800782A280AD10B9869
:10558000401C0B900C9880C80C90002F02DA7F42D0
:1055900045F010054FF0FF390B9800782E281CD1EC
:1055A0000B98401C0B900B98007830380A2804D2D6
:1055B0000BA8FFF77BFF81460AE00B9800782A28AA
:1055C00006D10B98401C0B900C9850F8049B0C9043
:1055D000B9F1000F01DA4FF00009002004900B9898
:1055E0000078682803D00B9800786C2805D10B98B8
:1055F000007804900B98401C0B900A2005900B98A3
:1056000000786F2875D00CDC632813D004DC2528C3
:1056100070D058286FD18DE064286DD06928F9D1F9
:105620008FE070286AD0732825D0752878D0782824
:10563000F0D182E005F0100040B904E0B44201D896
:1056400020202070641C781E071EF7DC0C9810F8D0
:10565000041B0C90C8B20790B44201D80798207080
:10566000641C04E0B44201D820202070641C781E21
:10567000071EF7DCAAE00C98006806900C98001D45
:105680000C90069808B9DBA006900698FFF7ABFDD2
:105690008346B9F1000F02DDCB4500DDCB4605F0B6
:1056A000100048B904E0B44201D820202070641CE6
:1056B00038467F1E5845F6DC002008900BE0B442C7
:1056C00002D8069800782070641C0698401C06904A
:1056D0000898401C089008985845F0DB04E0B44254
:1056E00001D820202070641C38467F1E5845F6DC07
:1056F0006CE01CE015E028E022E0FFE7781C10B920
:10570000082745F00105CDE9007902950C9804C8F9
:10571000102331460C902046FFF700FE044655E06A
:1057200012E0B44201D825202070641C4EE008200D
:1057300005901DE045F0400500BF1020059017E0E2
:1057400000BF45F0020500BF12E0B44201D8252099
:105750002070641C0B98007830B1B44202D80B98CA
:1057600000782070641C02E00B98401E0B902DE026
:1057700000BF04986C2807D10C9850F804AB0C902B
:1057800005F00200B8B116E0049868280BD10C9817
:1057900030F8041B1FFA81FA0C9005F0020050B19A
:1057A0000FFA8AFA07E00C9850F804AB0C9005F059
:1057B000020000B100BFCDE90079029552463146A2
:1057C0002046059BFFF7AAFD044600BF0B98401C2E
:1057D0000B900B98007800287FF48BAEB44201D870
:1057E000207001E000203070A4EB08000DB0BDE88F
:1057F000F08F0FB438B505A800907F217F48009B3B
:10580000049AFFF766FE04467F2C00D97F247C486B
:10581000006818B97948FFF780FD15E078480068FE
:10582000058B77480068008B40F040007449096898
:1058300008832346714A002171480068FFF710F978
:105840006F480068058300BF0020009038BC5DF8F9
:1058500014FB08B56BA0FFF7CCFF6DA0FFF7C9FFE5
:1058600074A0032300221946009075A0FFF7C1FF22
:105870007BA0FFF7BEFF08BD0FB4F8B504460D4688
:1058800009A8009029462046009B089AFFF721FEB0
:105890000646002000903046F8BC5DF814FB37B592
:1058A00005460C4622464FF0FF312846029BFFF783
:1058B00010FE3EBD0FB438B5044606A80090204641
:1058C000009A0599FFF7EBFF054600200090284657
:1058D00038BC5DF814FB4A480068704770B505464F
:1058E000474806682846FEF7C1FF044664B14448AD
:1058F000006818B142480068FFF778F84321204655
:10590000FFF737F83E480460304670BD70B5044676
:1059100004B970BD3A48006818B92046FFF7FDFC8D
:1059200019E037480068058B35480068008B40F067
:1059300040003349096808832046FFF754FC0646B7
:105940003346224600212E480068FFF789F82C488C
:105950000068058300BF00BFDBE72DE9F041074683
:105960000C46E01C20F00304F81C20F0030000EBC0
:105970000408404600F012F9054665B1601E284053
:1059800008B92E1904E0601E2844611E20EA0106B1
:1059900046F8045C35462846BDE8F08170B50446FB
:1059A00054F8045C284600F0A1F970BD014609B91D
:1059B00000207047C8B220B1C8B2344A105C401C05
:1059C000F7E701F47F4028B13048C1F30722805C3B
:1059D0000930EEE701F47F0028B12C48C1F30742FB
:1059E000805C1130E5E7294800EB11600078193040
:1059F000DFE70000284E554C4C29000048040020E9
:105A0000DC0000200A205C207C202F0A000000001F
:105A10002D205254202D20202020205468726561B2
:105A200064204F7065726174696E67205379737476
:105A3000656D0A004A756E203133203230313800EE
:105A4000202F207C205C202020202025642E25640F
:105A50002E2564206275696C642025730A0000009D
:105A60002032303036202D203230313820436F70D4
:105A70007972696768742062792072742D74687213
:105A8000656164207465616D0A000000E0D600085D
:105A900030B5FB4C436824681919884215D04B88EF
:105AA0009BB9F84B1B6899420FD0F74B1B688B4290
:105AB00001D1F54B18604B684360F14B1B68C31A6A
:105AC000EF4D4C682D682C44A360ED4C836824682E
:105AD0001A19824211D053887BB9EB4B1B68834261
