:020000040800F2
:10000000801D0020AD3F0008B50400083B840008B7
:10001000B7040008BB040008BF040008000000008B
:10002000000000000000000000000000C304000801
:10003000C13F00080000000087830008E3030008B8
:10004000C73F0008C73F0008C73F0008C73F000878
:10005000C73F0008C73F0008390900084B090008DE
:100060005D0900086F09000881090008C73F000802
:10007000C73F0008C73F0008C73F0008C73F000848
:10008000C73F0008C73F0008C73F0008C73F000838
:10009000C73F0008C73F0008C73F00089309000892
:1000A000C73F0008C73F0008C73F0008C73F000818
:1000B000C73F0008C73F0008C73F0008C73F000808
:1000C000C73F0008C73F0008C73F0008C73F0008F8
:1000D000C73F00088F0B0008C73F0008C73F000854
:1000E000C1090008C73F0008C73F0008C73F000814
:1000F000C73F0008C73F0008C73F0008C73F0008C8
:10010000C73F0008C73F0008C73F0008C73F0008B7
:10011000C73F0008C73F0008C73F0008C73F0008A7
:10012000C73F0008C73F0008C73F0008C73F000897
:10013000C73F0008C73F0008C73F0008C73F000887
:10014000C73F0008C73F0008C73F0008C73F000877
:10015000C73F0008C73F0008C73F0008C73F000867
:10016000C73F0008C73F0008C73F0008C73F000857
:10017000C73F0008C73F0008C73F00080000000055
:10018000C73F0008C73F000800F002F800F05CF825
:100190000AA090E8000C82448344AAF10107DA45E2
:1001A00001D100F051F8AFF2090EBAE80F0013F0D8
:1001B000010F18BFFB1A43F001031847ECCC0000F5
:1001C0000CCD00000A444FF0000C10F8013B13F076
:1001D000070408BF10F8014B1D1108BF10F8015BA0
:1001E000641E05D010F8016B641E01F8016BF9D193
:1001F00013F0080F1EBF10F8014BAD1C0C1B09D1EA
:100200006D1E58BF01F801CBFAD505E014F8016B5B
:1002100001F8016B6D1EF9D59142D6D370470000ED
:100220000023002400250026103A28BF78C1FBD8FF
:10023000520728BF30C148BF0B6070471FB50BF095
:10024000E2F91FBD10B510BD0BF0A3F91146FFF781
:10025000F5FF03F051FF0BF0C1F903B4FFF7F2FF14
:1002600003BC0BF0C9F9000030B593B01925A824E0
:1002700000BF002001908948006840F08050874905
:1002800008600846006800F08050019000BF00BF81
:1002900000BF002001908248006840F480408049FF
:1002A00008600846006800F48040019000BF00BF6D
:1002B000012007900004089002200D9041050E9146
:1002C00005F00100A0BB69080F9160003021B0FB70
:1002D000F1F201FB120018B91094022111915CE0B7
:1002E000A0003021B0FBF1F201FB120020B9610047
:1002F00010910421119150E004EB440040003021A2
:10030000B0FBF1F201FB120028B904EB440110919B
:100310000621119141E0E0003021B0FBF1F201FB38
:100320001200002839D1A10010910821119134E068
:10033000FFE70F9560003021B0FBF1F201FB1200E6
:1003400020B9610010910221119126E0A000302116
:10035000B0FBF1F201FB120020B9A10010910421C1
:1003600011911AE004EB440040003021B0FBF1F29F
:1003700001FB120030B904EB44004100109106214A
:1003800011910AE0E0003021B0FBF1F201FB120014
:1003900018B9E1001091082111910F98B5FBF0F008
:1003A000109948433021B0FBF1F1129107A801F0F8
:1003B00049FF08B100BFFEE70F2002900220039022
:1003C000002004904FF4A05005904FF48050069008
:1003D000052102A802F08FF908B100BFFEE713B0B3
:1003E00030BD10B505F04AFC00F0B9FE03F00DFE7B
:1003F00005F05BFC10BD70B5044602F094FA642170
:10040000B0FBF1F5284600F0C5FF00222146501E42
:1004100000F04AFF002070BD01B5009807F017FCFE
:1004200008BD7047704710B5032000F02BFF002275
:1004300011466FF00B0000F037FF002211466FF0FD
:100440000A0000F031FF002211466FF0090000F0B1
:100450002BFF00221146501F00F026FF00221146FC
:10046000101F00F021FF00220F21901E00F01CFF42
:1004700000220F21501E00F017FF10BD10B5FFF72E
:10048000F3FE00F030FE0749074806F0DDF903F0FF
:10049000EBFD06A006F06CF810BD000040380240ED
:1004A0000070004000000220801D00207561727401
:1004B00031000000704700BFFEE700BFFEE700BF4D
:1004C000FEE7704708B500BF00200090F9480068BB
:1004D00040F00100F74908600846006800F001009C
:1004E000009000BF00BF08BD08B500BF002000900D
:1004F000F048006840F00200EE49086008460068D5
:1005000000F00200009000BF00BF08BD08B500BFAA
:1005100000200090E748006840F00400E5490860CA
:100520000846006800F00400009000BF00BF08BD4E
:1005300008B500BF00200090DE48006840F00800C9
:10054000DC4908600846006800F00800009000BF21
:1005500000BF08BD08B500BF00200090D548006866
:1005600040F01000D34908600846006800F0100011
:10057000009000BF00BF08BD0146652907D2CE4AE2
:1005800002EB01100268521C12B9002000E00020AA
:1005900070472DE9F04107460D461646E8B2FFF7D1
:1005A000EBFF04460CB9BDE8F081F2B2A38999B221
:1005B000A06801F0FEFD00BFF5E72DE9F041074618
:1005C0000D460026E8B2FFF7D7FF044614B93046BF
:1005D000BDE8F081A28991B2A06801F0E2FD064673
:1005E0003046F5E7F0B585B007460E461446F0B242
:1005F000FFF7C2FF05460DB905B0F0BD686880473A
:10060000E8680090012001900020029003200390F0
:1006100024B9012001900020029019E0012C03D19F
:1006200000200190029013E0022C04D100200190E0
:10063000012002900CE0032C04D100200190022044
:10064000029005E0042C03D11120019000200290BB
:100650006946A86801F01EFC00BFCDE702460021F4
:1006600006E001208840904201D108467047491CAD
:100670002029F6DB4FF0FF30F8E72DE9F05F8346E5
:100680000D4616461F46DDF828804FF0FF34E8B2CD
:10069000FFF772FF8146B9F1000F02D10620BDE8D5
:1006A000F09FD9F80C00FFF7D9FF0446002C01DBBE
:1006B000102C01D30620F2E707F04EFE824604EB31
:1006C00044007E4931F92000A84219D104EB4400CE
:1006D00001EB80004068B84212D104EB440001EB0A
:1006E00080004088B0420BD104EB440001EB800055
:1006F0008068404504D1504607F032FE0020CEE726
:1007000004EB44006D4931F92000401C20B15046F3
:1007100007F026FE0720C2E728B204EB4401674A2F
:1007200022F8210004EB4400114601EB80004760F1
:1007300004EB440102EB81014E8004EB44001146BE
:1007400001EB8000C0F80880504607F009FE002049
:10075000A5E72DE9F04180460D464FF0FF34E8B2A1
:10076000FFF70AFF064616B90620BDE8F081F068DB
:10077000FFF774FF0446002C01DB102C01D3062088
:10078000F3E707F0E9FD074604EB44004B4931F974
:100790002000401C20B9384607F0E2FD0020E4E7C5
:1007A0004FF0FF3004EB4401444A22F821000020BE
:1007B00004EB440102EB8101486004EB440102EBCD
:1007C0008101488004EB440102EB810188603846D6
:1007D00007F0C6FD0020C8E72DE9F04F85B0894637
:1007E00017464FF0FF3609F0FF00FFF7C5FE04463D
:1007F0001CB9062005B0BDE8F08F012F4BD1E06891
:10080000FFF72CFF0646002E01DB102E01D3062039
:10081000F0E707F0A1FD834606EB4600274931F9D2
:100820002000401C20B9584607F09AFD0620E1E759
:10083000234800EB860560688047E0680090002050
:1008400002900320039006EB46001C4901EB800058
:10085000408820B1012805D0022809D105E01948B7
:10086000019005E01848019002E01848019000BF8F
:1008700000BF6946A06801F00DFB95F90200002257
:10088000052100F011FD95F9020000F04BFD5846DE
:1008900007F066FD2AE03FBBD4F80CA05046FFF7F6
:1008A000DDFE8046B8F1000F02DBB8F1100F0FD368
:1008B000002010E03038024010B600080000002090
:1008C00060BC000800001110000021100000311071
:1008D0004A4800EB880005460DB906208AE795F9DD
:1008E000020000F02CFD01E0062083E7002081E7F4
:1008F00010B50022424943A007F00EFE04462046F0
:1009000010BD70B505462846FFF7A8FE044604EB67
:1009100044003D4901EB8000406858B104EB4402BB
:100920000B4603EB8202906804EB440203EB820265
:100930005168884700BF70BD10B505F09FF90120D0
:1009400001F059FC05F0B1F910BD10B505F096F9AC
:10095000022001F050FC05F0A8F910BD10B505F01B
:100960008DF9042001F047FC05F09FF910BD10B58A
:1009700005F084F9082001F03EFC05F096F910BD61
:1009800010B505F07BF9102001F035FC05F08DF96C
:1009900010BD10B505F072F9202001F02CFC4020AC
:1009A00001F029FC802001F026FC4FF4807001F05A
:1009B00022FC4FF4007001F01EFC05F076F910BD2A
:1009C00010B505F05BF94FF4806001F014FC4FF4B2
:1009D000006001F010FC4FF4805001F00CFC4FF46B
:1009E000005001F008FC4FF4804001F004FC4FF48B
:1009F000004001F000FC05F058F910BD60BC000893
:100A0000A0BC000870696E000000002070B50646AA
:100A10000D4626B92E22E449E4A005F037FE25B99B
:100A20002F22E149E6A005F031FEF46B28686060F2
:100A30000021A1610C2161610021E161287900F0B0
:100A40000F00082802D0092807D102E00021A16088
:100A500006E04FF48051A16002E00021A16000BFD8
:100A600000BF2879C0F3011010B1012807D102E0BE
:100A70000021E16006E04FF40051E16002E0002156
:100A8000E16000BF00BF2879C0F3811020B10128C8
:100A900005D002280BD106E0002121610AE04FF4C5
:100AA000C061216106E04FF48061216102E0002114
:100AB000216100BF00BF204602F0C1F908B101204A
:100AC00070BD0020FCE72DE9F04105460E461746B3
:100AD00025B96D22BE49B5A005F0D8FDEC6B102EEE
:100AE00013D0112E25D194F9400000F01F020121EE
:100AF0009140B84A430942F8231000BF2068C068FB
:100B000020F020002168C86013E094F9400000F054
:100B10001F02012191404209920002F1E022C2F835
:100B2000001100BF2068C06840F020002168C86044
:100B300000BF00BF0020BDE8F08170B504460E463E
:100B400024B98722A44999A005F0A0FDE56B00BF58
:100B500028680068C0F3C0100028F9D028684660F3
:100B6000012070BD70B5044624B994229B498FA022
:100B700005F08CFDE56B4FF0FF3628680068C0F388
:100B8000401010B128684068C6B2304670BD10B53C
:100B9000934C05F073F820680068C0F3401060B112
:100BA0002068C06800F0200038B101218D4808F0AD
:100BB00005FA6FF020002168086005F076F810BD96
:100BC00010B586B0044688492068884231D100BFFC
:100BD000002000908548006840F0100083490860BC
:100BE0000846006800F01000009000BF00BF00BF82
:100BF000002000907D481438006840F001007B49D7
:100C0000143908600846006800F00100009000BF39
:100C100000BF4FF4C06001900220029001200390B9
:100C2000032004900720059001A9714801F032F9D2
:100C30006AE070492068884232D100BF00200090ED
:100C40006A48001F006840F400306849091F0860C6
:100C50000846006800F40030009000BF00BF00BFED
:100C60000020009061481438006840F001005F499E
:100C7000143908600846006800F00100009000BFC9
:100C800000BF0C200190022002900120039003205D
:100C900004900720059001A9554801F0FBF833E0C6
:100CA0005549206888422FD100BF002000904F484E
:100CB000006840F020004D4908600846006800F0D8
:100CC0002000009000BF00BF00BF002000904748F8
:100CD0001438006840F0040044491439086008469C
:100CE000006800F00400009000BF00BFC020019029
:100CF0000220029001200390032004900820059018
:100D000001A93E4801F0C6F806B010BD10B5044672
:100D10003549206888420BD13448006820F0100023
:100D2000324908604FF4C061314801F09CF91EE07F
:100D30003049206888420CD12C48001F006820F4FC
:100D400000302A49091F08600C21294801F08BF95D
:100D50000DE029492068884209D12448006820F024
:100D6000200022490860C021244801F07CF910BD10
:100D70001CB5234903C9CDE90001194C1A4820606C
:100D8000252084F840001F48164908640846DDE91C
:100D90000012C0E91112234640F203121AA108F012
:100DA000E4F800201CBD0000CCBC0008736572692B
:100DB000616C20213D2052545F4E554C4C00000088
:100DC00063666720213D2052545F4E554C4C000015
:100DD000DABC000880E100E0E6BC0008EFBC0008D7
:100DE0001C02002060020020001001404438024034
:100DF000000002400044004000140140000802408E
:100E0000F8BC0008B8BC00087561727431000000BD
:100E1000FEB50A2000904FF47A7300222349019016
:100E200023A006F0BDFD074617B1384606F062FD67
:100E300035208DF8080036208DF8090037208DF810
:100E40000A000A2014214FF47A7302AACDE9001097
:100E50001A491BA006F0A4FD044614B1204606F072
:100E600049FD0A2014214FF47A730DF10902CDE9EE
:100E70000010124914A006F093FD054615B128464E
:100E800006F038FD0A2014214FF47A730DF10A029E
:100E9000CDE9001009490FA006F082FD064616B103
:100EA000304606F027FD0020FEBD0000610F00085F
:100EB0006C656420696E697400000000BD0F000855
:100EC0006C656420726564006C65642047726565BA
:100ED0006E0000006C656420426C756500000000C7
:100EE0000121352007F095FB0121362007F091FB09
:100EF0000121372007F08DFB0421352007F076FB18
:100F00000421362007F072FB0421372007F06EFB26
:100F100025E0002421E004F13500012107F079FBF0
:100F2000A01C032190FBF1F201FB120000F135053A
:100F30000121284607F06DFB601C032190FBF1F2B4
:100F400001FB120000F135050021284607F061FB86
:100F50000A2006F07CFE601CC4B2032CDBDBD8E761
:100F600010B504460121352007F053FB012136203E
:100F700007F04FFB0121372007F04BFB0421352000
:100F800007F034FB0421362007F030FB0421372022
:100F900007F02CFB0121352007F03BFB0121362017
:100FA00007F037FB0121372007F033FB0022012136
:100FB0001DA003F0AFFB1F49086010BD0446264684
:100FC000277831461CA005F05EFA2BE04FF0FF3188
:100FD0001848006803F0EFFB0546002D22D1352F9D
:100FE00004D0362F06D0372F0CD107E016A005F01D
:100FF0004AFA07E01EA005F046FA03E026A005F035
:1010000042FA00BF00BF0021384607F002FB322041
:1010100006F01DFE0121384607F0FBFA054800687E
:1010200003F055FCD2E700006C6564206F6E2073FE
:10103000656D0000C0000020706172616D203D2070
:10104000256C640D0A0000006C65642072656420E4
:10105000202020202020202020202067657420745C
:101060006865207265736F757263652E0D0A0000E6
:101070006C65642020202020677265656E2020202A
:1010800020202067657420746865207265736F7511
:101090007263652E0D0A00006C65642020202020FC
:1010A000202020202020626C7565206765742074E4
:1010B0006865207265736F757263652E0D0A000096
:1010C000704770B504465F4800684FF47A71B0FB12
:1010D000F1F5284600F05EF900222146501E00F08E
:1010E000E3F8002070BD10B55748006840F4007068
:1010F000554908600846006840F48060086008466A
:10110000006840F480700860032000F0BBF80F20F6
:10111000FFF771F9FFF787F9002010BD704710B590
:101120004FF0FF304949086000200860401E091D4B
:10113000086000200860401E444910390860002003
:101140000860401E091D086000200860401E091D3F
:10115000086000200860FFF7E1FF002010BD3C4858
:101160000068401C3A490860704739480068704779
:1011700031B5FFF7FAFF0546009C601C00B1641C06
:1011800000BFFFF7F2FF401BA042FAD338BD4FF07B
:10119000E020006920F002004FF0E0210861704774
:1011A0004FF0E020006940F002004FF0E0210861BC
:1011B00070472848704728480068000C7047264848
:1011C0000068C0F30B0070472348406840F00100FE
:1011D0002149486070472048406820F001001E49BE
:1011E000486070471C48406840F002001A49486057
:1011F00070471948406820F002001749486070475E
:101200001548406840F00400134948607047124890
:10121000406820F0040010494860704701200F49E1
:101220000860704700200D49086070470C49096844
:1012300001600B49091D09684160094908310968C5
:1012400081607047C8000020003C02402038024006
:10125000C400002000020701002004E0000427422F
:10126000107AFF1F10B5002807DA0A07140ED94AB2
:1012700000F00F031B1FD45403E00A07130ED64AD5
:10128000135410BD00BF00F00702D24B0C3B19688D
:101290004FF6FF031940D14B0B4343EA0221CD4BDC
:1012A0000C3B196000BF70472DE9F05F80460D468A
:1012B0001646002700F087F9074639462A46334686
:1012C00001F00700C0F1070ABAF1040F02D94FF08C
:1012D000040A01E0C0F1070AD14600F1040ABAF19C
:1012E000070F02D24FF0000A01E0A0F1030AD44632
:1012F0004FF0010A0AFA09FAAAF1010A0AEA020AF7
:101300000AFA0CFA4FF0010B0BFA0CFBABF1010BD4
:101310000BEA030B4AEA0B0421464046FFF7A2FF03
:10132000BDE8F09F00BF00F01F020121914042097B
:10133000920002F1E022C2F8001100BF704700BF26
:1013400000F01F0201219140A54A430942F82310F1
:1013500000BF704700BF00BF00BF00BF00BFBFF3AA
:101360004F8F00BF00BF00BF9A480C38006800F4E0
:10137000E0609A490843001D96490C39086000BF97
:1013800000BF00BFBFF34F8F00BF00BF00BF00BF53
:1013900000BFFDE770B504462546681EB0F1807FAA
:1013A00001D301200FE0681E4FF0E02148610F21BA
:1013B0004FF0FF30FFF756FF00204FF0E02188612B
:1013C00007200861002070BD00BF00BF00BFBFF351
:1013D0005F8F00BF00BF00BF7E480C30006820F464
:1013E00080307C490C31086000207A497C310860EB
:1013F000704740F00101774A7C32116075490C3129
:10140000096841F48031734A0C32116000BF00BF9B
:1014100000BFBFF34F8F00BF00BF00BF00BF00BFC2
:1014200000BFBFF36F8F00BF00BF00BF70474178A0
:10143000684A803211600178F9B1121D416811606B
:10144000017B0907C27A41EA0261827A41EAC2411C
:10145000427B41EA8241827B41EA4241C27B41EACE
:101460000241427A41EA0221027A41EA42010278CB
:101470001143584A8832116005E00021554A8432F0
:101480001160121D1160704710B500F09CF810BD7E
:101490002DE9F04304462046002808DA4D4F00F0BD
:1014A0000F0CACF1040C17F80C703F0902E04A4F26
:1014B0003F5C3F093D460E4606F00700C0F10708B5
:1014C000B8F1040F02D94FF0040801E0C0F1070899
:1014D000C44600F10408B8F1070F02D24FF000082B
:1014E00001E0A0F10308474625FA07F84FF001098B
:1014F00009FA0CF9A9F1010908EA0908C2F8008003
:101500004FF0010808FA07F8A8F1010808EA0508F1
:10151000C3F8008000BFBDE8F08300BF00F01F02E9
:10152000012191402E4A8032430942F8231000BF26
:10153000704710B501460846294A8032430952F8DF
:10154000232000F01F040123A3401A400AB1012206
:1015500000E00022104610BD00BF00F01F02012174
:101560009140204A430942F8231000BF704710B54C
:10157000014608461B4A8032430952F8232000F0F6
:101580001F040123A3401A400AB1012200E00022F7
:10159000104610BD042808D14FF0E021096941F040
:1015A00004014FF0E022116107E04FF0E0210969EA
:1015B00021F004014FF0E02211617047704710B52F
:1015C000FFF7FCFF10BD03480C380068C0F3022091
:1015D0007047000018ED00E000E400E00000FA05AC
:1015E00080E100E080E200E001460878103818232E
:1015F000B0FBF3F2FB48805CC865032A05D9086894
:101600006FF30900001D886503E008686FF30900A7
:101610008865886D7047014600208A6A8B69CBB95E
:1016200032B1012A0DD0022A03D0032A10D10EE0D4
:1016300000BFCB6A03F08073B3F1807F00D101203B
:1016400007E0CB6AB3F1C07F00D1012001E000E0E8
:1016500000BF34E08B69B3F5005F1AD132B1012AC3
:1016600007D0022A03D0032A11D10AE000BF0120CB
:101670000EE0CB6A03F08073B3F1807F00D10120CC
:1016800006E0CB6AB3F1C07F00D1012000E000BFCB
:1016900015E032B1012A05D0022A04D0032A0CD168
:1016A00003E000BF00BF012008E0CB6A03F08073B5
:1016B000B3F1807F00D1012000E000BF00BF704780
:1016C0002DE9F04104460025FFF74FFD074614B908
:1016D0000120BDE8F081606A00B100BF00BF0020BA
:1016E00084F8340000BF022084F8350020680068C8
:1016F00020F00100216808600AE0FFF736FDC01BFA
:10170000052805D920206065032084F83500E0E72E
:101710002068006800F001000028EED1206805680C
:10172000B1480540D4E901010843E1680843216953
:10173000084361690843A1690843E1690843216AD4
:1017400008430543606A042803D1D4E90B01084328
:101750000543206805602068456925F00705606A33
:101760000543606A04280DD1A06A0543E06A48B1C8
:101770002046FFF750FF28B140206065012084F823
:101780003500A6E7206845612046FFF72DFF064695
:1017900094F85C103F208840B06000206065012014
:1017A00084F83500002094E770B504460CB9012098
:1017B00070BD94F83500022800D1F9E72068006870
:1017C00020F001002168086000202168086021687D
:1017D0004860216888602168C8602168086121200C
:1017E000216848612046FFF7FFFE054694F85C102B
:1017F0003F208840A8600020606584F8350000BF65
:1018000084F8340000BF00BFD2E730B50468246814
:1018100024F4802405682C60046863608468402C8C
:1018200004D10468A2600468E16003E00468A16078
:101830000468E26030BD2DE9F04104460D461646CD
:101840001F464FF0000800BF94F83400012802D171
:101850000220BDE8F081012084F8340000BF94F834
:101860003500012811D1022084F835000020606580
:101870003B46324629462046FFF7C7FF20680068EE
:1018800040F001002168086006E000BF002084F8F5
:10189000340000BF4FF002084046DAE72DE9F04778
:1018A00004460D4616461F464FF00008D4F85890DF
:1018B00000BF94F83400012802D10220BDE8F0876F
:1018C000012084F8340000BF94F8350001282BD1A2
:1018D000022084F83500002060653B4632462946E8
:1018E0002046FFF792FF94F85C103F208840C9F82B
:1018F00008002068006840F0160021680860206831
:10190000406940F0800021684861206C28B120685F
:10191000006840F00800216808602068006840F016
:1019200001002168086006E000BF002084F8340050
:1019300000BF4FF002084046C0E770B50446A56DF1
:10194000FFF713FC064694F83500022808D08020E3
:10195000606500BF002084F8340000BF012070BD26
:101960002068006820F0160021680860206840693F
:1019700020F0800021684861206C08B9A06C28B173
:101980002068006820F0080021680860206800686E
:1019900020F00100216808600FE0FFF7E6FB801BE4
:1019A00005280AD92020606500BF002084F8340093
:1019B00000BF032084F83500D1E72068006800F0FC
:1019C00001000028E9D194F85C103F208840A8600D
:1019D00000BF002084F8340000BF012084F83500E7
:1019E0000020BCE700BD00083F8010F0014691F8E0
:1019F0003500022803D0802048650120704705206B
:101A000081F835000868006820F001000A6810605D
:101A10000020F3E72DE9F05F0446884617464FF0B3
:101A2000000AFFF7A2FB834694F83500022809D08C
:101A30008020606500BF002084F8340000BF0120D2
:101A4000BDE8F09F2068006800F4807020B14FF47A
:101A5000807060650120F3E7B8F1000F05D194F8BC
:101A60005C10202000FA01F904E094F85C101020CA
:101A700000FA01F9A56D2E6842E0781C90B12FB1F3
:101A8000FFF773FBA0EB0B00B8420BD92020606579
:101A900000BF002084F8340000BF012084F8350026
:101AA0000320CDE72E6894F85C1008208840304071
:101AB00040B1606D40F00100606594F85C10082052
:101AC0008840A86094F85C1001208840304040B104
:101AD000606D40F00200606594F85C100120884061
:101AE000A86094F85C1004208840304040B1606DDC
:101AF00040F00400606594F85C1004208840A86001
:101B000006EA090020B9606D00F001000028B4D099
:101B1000606DA0B1606D00F0010080B12046FFF75C
:101B20000CFF94F85C1030208840A86000BF0020B3
:101B300084F8340000BF012084F8350080E7B8F154
:101B4000000F0DD194F85C1030208840A86000BFD1
:101B5000002084F8340000BF012084F8350004E040
:101B600094F85C1010208840A860504668E7F8B5EB
:101B7000044600200090C64800684FF41651B0FBA0
:101B8000F1F7A56D2E6894F85C100820884030406D
:101B900098B12068006800F0040070B12068006807
:101BA00020F004002168086094F85C100820884048
:101BB000A860606D40F00100606594F85C10012041
:101BC0008840304068B12068406900F0800040B132
:101BD00094F85C1001208840A860606D40F002001D
:101BE000606594F85C1004208840304068B120683B
:101BF000006800F0020040B194F85C1004208840B6
:101C0000A860606D40F00400606594F85C101020DE
:101C10008840304078B32068006800F0080050B376
:101C200094F85C1010208840A8602068006800F4D8
:101C3000802080B12068006800F4002028B9206C62
:101C4000C8B12046216C884715E0A06C98B12046A9
:101C5000A16C88470FE02068006800F4807028B904
:101C60002068006820F0080021680860206C10B12E
:101C70002046216C884794F85C1020208840304032
:101C8000002865D02068006800F0100000285FD0B0
:101C900094F85C1020208840A86094F8350005284E
:101CA00028D12068006820F01600216808602068AC
:101CB000406920F0800021684861206C08B9A06C60
:101CC00028B12068006820F008002168086094F8B6
:101CD0005C103F208840A86000BF002084F83400DA
:101CE00000BF012084F83500206D10B12046216D21
:101CF0008847F8BD2068006800F4802080B1206823
:101D0000006800F4002028B9606C10B12046616CB6
:101D100088471DE0E06BD8B12046E16B884717E0AB
:101D20002068006800F4807068B92068006820F0BE
:101D300010002168086000BF002084F8340000BF54
:101D4000012084F83500E06B10B12046E16B884734
:101D5000606D38B3606D00F00100F0B1052084F8CB
:101D600035002068006820F001002168086000BF8D
:101D70000098401C0090B84200D905E02068006837
:101D800000F001000028F3D100BF00BF002084F85C
:101D9000340000BF012084F83500E06C10B120460B
:101DA000E16C884700BFA4E710B50346002400BFDC
:101DB00093F83400012801D1022010BD012083F8DE
:101DC000340000BF93F83500012814D1062910D241
:101DD000DFE801F0030507090B0DDA630AE01A6476
:101DE00008E05A6406E09A6404E0DA6402E01A65E6
:101DF00000E000BF00E0012400BF002083F83400B1
:101E000000BF2046D9E70246002300BF92F8340005
:101E1000012801D102207047012082F8340000BF60
:101E200092F83500012824D107291FD2DFE801F0FC
:101E300004070A0D101316000020D06318E00020DC
:101E4000106415E00020506412E0002090640FE060
:101E50000020D0640CE00020106509E00020D06371
:101E6000106450649064D064106501E0012300BFE9
:101E700000E0012300BF002082F8340000BF1846B4
:101E8000C9E7014691F8350070470146486D704733
:101E9000C8000020F8B502460B46002500240020AB
:101EA0000021DCE0012606FA01F51E6806EA0504B9
:101EB000AC4273D15E68022E02D05E68122E13D13E
:101EC000CF0802F1200656F827004E07F70E0F261E
:101ED000BE40B0434F07FF0E1E69BE403043CF08DF
:101EE00002F1200646F8270010684F000326BE4086
:101EF000B0431E7906F003064F00BE403043106029
:101F00005E68012E08D05E68022E05D05E68112E34
:101F100002D05E68122E13D190684F000326BE4097
:101F2000B0434F00DE68BE403043906050680126E9
:101F30008E40B0431E79C6F300168E403043506089
:101F4000D0684F000326BE40B0434F009E68BE409D
:101F50003043D0605E6806F08056B6F1805F7DD178
:101F600000BF00260096AB4E366846F48046A94F67
:101F70003E603E46366806F48046009600BF00BFCD
:101F8000A54E8F0856F827008E07370F0F26BE4044
:101F9000B043A24EB24202D1002624E05EE0A04E41
:101FA000B24201D101261EE09E4EB24201D102266C
:101FB00019E09D4EB24201D1032614E09B4EB2427D
:101FC00001D104260FE09A4EB24201D105260AE063
:101FD000984EB24201D1062605E0974EB24201D199
:101FE000072600E008268F073F0FBE4030438A4E89
:101FF0008F0846F82700914E3068A0435E6806F4CB
:102000008036B6F5803F00D120438C4E3060361DBF
:102010003068A0435E6806F40036B6F5003F00D194
:102020002043864E361D3060361D3068A0435E6802
:1020300006F48016B6F5801F00D120437F4E083687
:102040003060361D3068A0435E6806F40016B6F5B1
:10205000001F00D12043794E0C363060491C1029F6
:10206000FFF420AFF8BDF0B50C4600250022002398
:10207000002192E0012606FA01F504EA0502AA42CF
:102080007ED106684FEA410C032707FA0CF7BE43DE
:102090000660CF0800F1200656F827604F074FEA88
:1020A000D76C0F2707FA0CF7BE434FEAD10C00F1AB
:1020B000200747F82C6086684FEA410C032707FA8F
:1020C0000CF7BE438660466801278F40BE434660DA
:1020D000C6684FEA410C032707FA0CF7BE43C660F7
:1020E0004D4E8F0856F827308E07370F0F26BE400B
:1020F00033404A4EB04201D1002623E0484EB04260
:1021000001D101261EE0474EB04201D1022619E05E
:10211000454EB04201D1032614E0444EB04201D1F5
:1021200004260FE0424EB04201D105260AE0414E9E
:10213000B04201D1062605E03F4EB04201D107264C
:1021400000E008268F073F0FBE409E4224D18E0735
:10215000370F0F2606FA07F32F4E8F0856F8276021
:102160009E432D4F4FEA910C47F82C60334E366852
:102170009643324F3E603E1D366896433F1D00E059
:102180000AE03E603E1D366896433F1D3E603E1DA0
:10219000366896433F1D3E60491C1029FFF46AAF24
:1021A000F0BD024613690B400BB1012000E0002096
:1021B00070470AB1816101E00B0483617047426995
:1021C0004A404261704708B502464FF480300090A3
:1021D0000098084300900098D061D1610098D061C8
:1021E000D0690090D06900F4803008B1002008BDAB
:1021F0000120FCE7704710B5044610481430006811
:10220000204028B10D48143004602046FEF779FBC9
:1022100010BD000044380240083801400000024070
:102220000004024000080240000C0240001002407E
:102230000014024000180240001C0240003C014013
:102240000020704738B504460CB9012038BD20780D
:1022500000F00100002874D0F848006800F00C007D
:1022600004280DD0F548006800F00C00082813D1B0
:10227000F248001F006800F48000B0F5800F0BD119
:10228000EE4808380068C0F34040002859D0606824
:10229000002856D10120D9E700BF6068B0F5803F23
:1022A00008D1E6480838006840F48030E34908392E
:1022B00008601EE06068B0F5A02F0DD1DF48083837
:1022C000006840F48020DD4908390860084600684D
:1022D00040F4803008600CE0D8480838006820F4EA
:1022E0008030D649083908600846006820F480200C
:1022F000086000BF606890B1FEF737FF054606E052
:10230000FEF733FF401B642801D903209EE7CB482A
:1023100008380068C0F340400028F1D011E0FEF713
:1023200024FF054606E0FEF720FF401B642801D984
:1023300003208BE7C14808380068C0F340400028FC
:10234000F1D1207800F0020002285FD1BB4800687C
:1023500000F00C0058B1B948006800F00C000828E3
:102360001CD1B648001F006800F48000B0B9B34823
:1023700008380068C0F3400020B1E068012801D0AF
:10238000012063E7AD480838006820F0F8002169B3
:1023900040EAC100A9490839086037E0E06800B3A5
:1023A0000120A7490860FEF7E0FE054606E0FEF7BB
:1023B000DCFE401B022801D9032047E79F4808386C
:1023C0000068C0F340000028F1D09C48083800683D
:1023D00020F0F800216940EAC100984908390860F6
:1023E00014E0002096490860FEF7BFFE054606E0AF
:1023F000FEF7BBFE401B022801D9032026E78F48C9
:1024000008380068C0F340000028F1D1207800F0BF
:10241000080008282CD16069A8B10120894908600A
:10242000FEF7A3FE054606E0FEF79FFE401B0228CE
:1024300001D903200AE781486C300068C0F34000EE
:102440000028F1D014E000207E490860FEF78DFEE0
:10245000054606E0FEF789FE401B022801D903204D
:10246000F4E676486C300068C0F340000028F1D1F3
:10247000207800F0040004287FD100BF00200090E5
:102480006E483830006840F080506C493831086040
:102490000846006800F08050009000BF00BF6A4806
:1024A000006840F4807068490860FEF75EFE0546EB
:1024B00006E0FEF75AFE401B022801D90320C5E6BC
:1024C0006148006800F480700028F2D000BFA06866
:1024D000012808D159486830006840F00100574988
:1024E000683108601DE0A06805280DD153486830A8
:1024F000006840F0040051496831086008460068EF
:1025000040F0010008600CE04C486830006820F0A2
:1025100001004A49683108600846006820F004005C
:10252000086000BFA068A0B1FEF71FFE054608E0E6
:10253000FEF71BFE401B41F28831884201D903207F
:1025400084E63E4868300068C0F340000028EFD0C1
:1025500013E0FEF70AFE054608E0FEF706FE401B04
:1025600041F28831884201D903206FE63348683050
:102570000068C0F340000028EFD1A069B8B32F482D
:10258000006800F00C00082860D0A06902283ED145
:1025900000202B490866FEF7E8FD054606E0FEF739
:1025A000E4FD401B022801D903204FE623480838E8
:1025B0000068C0F340600028F1D1D4E90701084366
:1025C000616A40EA81110122A06AC2EB500041EA2F
:1025D00000412C20005D41EA00601849091F086095
:1025E000012017490866FEF7C0FD054607E02FE009
:1025F000FEF7BBFD401B022801D9032026E60F4849
:1026000008380068C0F340600028F1D020E00020C6
:102610000B490866FEF7A9FD054606E0FEF7A5FD95
:10262000401B022801D9032010E60448083800683E
:10263000C0F340600028F1D10AE007E0083802400A
:1026400000004742800E4742007000400120FDE537
:102650000020FBE52DE9F047002400250026A146D7
:10266000FB48006800F00C0020B1042805D00828C1
:102670003AD105E0DFF8DC9339E0DFF8DC9336E0AF
:10268000F348001F006800F03F04F148001F006895
:1026900000F4800078B1F048ED49091F0968C1F3E2
:1026A0008811A0FB0170014622460023384608F03D
:1026B00070FD05460EE0E748E549091F0968C1F3CA
:1026C0008811A0FB0170014622460023384608F01D
:1026D00060FD0546DE48001F0068C0F30140401C55
:1026E0004600B5FBF6F902E0DFF8689300BF00BFD3
:1026F0004846BDE8F08770B504460D460CB9012088
:1027000070BDD648006800F00F00A84209D2D34936
:102710000D700846006800F00F00A84201D00120AB
:10272000EEE7207800F0020002281DD1207800F0AA
:102730000400042805D1C648006840F4E050C449AC
:102740000860207800F00800082805D1C04800681B
:1027500040F46040BE490860BD48006820F0F000C9
:10276000A1680843BA490860207800F00100A8B3C6
:102770006068012807D1B64808380068C0F34040B7
:10278000B8B90120BCE76068022802D0606803285D
:1027900007D1AF4808380068C0F3406048B901204D
:1027A000AEE7AB4808380068C0F3400008B9012024
:1027B000A6E7A748006820F0030061680843A44921
:1027C0000860FEF7D2FC064609E0FEF7CEFC801B4F
:1027D00041F28831884202D9032091E707E09C4802
:1027E000006800F00C006168B0EB810FEDD19B48F0
:1027F000006800F00F00A84209D998490D700846FA
:10280000006800F00F00A84201D0012078E720788E
:1028100000F00400042807D18D48006820F4E0503F
:10282000E16808438A490860207800F00800082819
:1028300008D18748006820F46040216940EAC1005F
:1028400083490860FFF706FF81490968C1F3031156
:10285000834A515CC840834908600F20FDF7CBFDD7
:1028600000204DE770B586B006460C46154646BBBF
:1028700000BF0020009076482830006840F001003A
:102880007349283108600846006800F00100009094
:1028900000BF00BF88150190022002900320049021
:1028A00000200390059001A96F48FFF7F3FA6848EC
:1028B000006820F0EC6044EA0501084364490860C0
:1028C00027E000BF0020009061482830006840F0F9
:1028D00004005F49283108600846006800F00400E1
:1028E000009000BF00BF4815019002200290032015
:1028F000049000200390059001A95C48FFF7CAFAF4
:102900005348006820F0784044EAC5010843504924
:10291000086006B070BD01205549C86470470020AA
:102920005349C86470474F480068704700B5FFF7C7
:10293000FAFF47490968C1F382214E4A515CC840F9
:1029400000BD00B5FFF7EFFF41490968C1F342310F
:10295000484A515CC84000BD0F2101603C4908391C
:10296000096801F48021B1F5802F03D14FF4A02133
:1029700041600DE036490839096801F48031B1F54C
:10298000803F03D14FF48031416001E0002141607C
:102990002F490839096801F0010111B10121C16015
:1029A00001E00021C1602A4908390968C1F3C40166
:1029B000016127496831096801F00401042902D145
:1029C000052181600AE022496831096801F00101AE
:1029D00011B10121816001E0002181601C496C314D
:1029E000096801F0010111B10121416101E00021FB
:1029F000416117490839096801F08071B1F1807FA0
:102A000002D10221816101E0012181611049091F88
:102A1000096801F48002C2610D49091F096801F0CB
:102A20003F0202620A49091F0968C1F38812426223
:102A30000749091F096801F4403101F58031CA0BCB
:102A400082620349091F0968C1F30362C2627047C9
:102A5000083802400024F40040787D01003C024028
:102A600008BD0008C8000020000002400008024025
:102A70000000474218BD00080F220260154A126884
:102A800002F003024260134A126802F0F002826010
:102A9000104A126802F4E052C2600E4A126802F450
:102AA0006042D20802610C4A126802F00F020A600A
:102AB0007047704710B50748001D006800F080009F
:102AC000802805D1FFF7F5FF80200249891D087095
:102AD00010BD000008380240003C02402DE9F041E2
:102AE000044600252068056925F44055E068054343
:102AF000206805612068C56849F20C60854321693A
:102B0000A068084361690843E169084305432068F8
:102B1000C5602068456925F44075A06905432068B3
:102B20004561E069B0F5004F7ED1FE4920688842DA
:102B300003D0FD49206888425DD1FFF702FF00EB1A
:102B4000C00101EB001061684900B0FBF1F06421A5
:102B5000B0FBF1F00601FFF7F4FE00EBC00101EB62
:102B6000001061684900B0FBF1F7FFF7EAFE00EBE7
:102B7000C00101EB001061684900B0FBF1F0642175
:102B8000B0FBF1F000EBC00101EB0010A7EB8000FF
:102B9000322101EBC0006421B0FBF1F000F0F8003D
:102BA00006EB4006FFF7CDFE00EBC00101EB001085
:102BB00061684900B0FBF1F7FFF7C3FE00EBC0010D
:102BC00001EB001061684900B0FBF1F06421B0FB3B
:102BD000F1F000EBC00101EB0010A7EB8000322107
:102BE00001EBC0006421B0FBF1F000F007003044BD
:102BF0002168886020E1FFF799FE00EBC00101EB3E
:102C0000001061684900B0FBF1F06421B0FBF1F005
:102C10000601FFF78BFE00EBC00101EB00106168BD
:102C20004900B0FBF1F700E045E0FFF77FFE00EB65
:102C3000C00101EB001061684900B0FBF1F06421B4
:102C4000B0FBF1F000EBC00101EB0010A7EB80003E
:102C5000322101EBC0006421B0FBF1F000F0F8007C
:102C600006EB4006FFF762FE00EBC00101EB00102F
:102C700061684900B0FBF1F7FFF758FE00EBC001B7
:102C800001EB001061684900B0FBF1F06421B0FB7A
:102C9000F1F000EBC00101EB0010A7EB8000322146
:102CA00001EBC0006421B0FBF1F000F007003044FC
:102CB00021688860C0E09B492068884203D09A4917
:102CC000206888425CD1FFF73CFE00EBC00101EBBD
:102CD000001061688900B0FBF1F6FFF732FE00EBEF
:102CE000C00101EB001061688900B0FBF1F06421C4
:102CF000B0FBF1F000EBC00101EB0010A6EB80008F
:102D0000322101EB00106421B0FBF1F000F0F0067D
:102D1000FFF717FE00EBC00101EB001061688900AE
:102D2000B0FBF1F06421B0FBF1F006EB0016FFF709
:102D300008FE00EBC00101EB001061688900B0FBE8
:102D4000F1F7FFF7FEFD00EBC00101EB0010616839
:102D50008900B0FBF1F06421B0FBF1F000EBC001A1
:102D600001EB0010A7EB8000322101EB0010642181
:102D7000B0FBF1F000F00F003044216888605BE0A8
:102D8000FFF7D4FD00EBC00101EB00106168890082
:102D9000B0FBF1F6FFF7CAFD00EBC00101EB00103C
:102DA00061688900B0FBF1F06421B0FBF1F000EB49
:102DB000C00101EB0010A6EB8000322101EB0010F6
:102DC0006421B0FBF1F000F0F006FFF7AFFD00EB7F
:102DD000C00101EB001061688900B0FBF1F06421D3
:102DE000B0FBF1F006EB0016FFF7A0FD00EBC00111
:102DF00001EB001061688900B0FBF1F7FFF796FD69
:102E000000EBC00101EB001061688900B0FBF1F03C
:102E10006421B0FBF1F000EBC00101EB0010A7EB67
:102E20008000322101EB00106421B0FBF1F000F0D2
:102E30000F00304421688860BDE8F081704710B50C
:102E400004460CB9012010BDA06900B100E000BF2C
:102E500094F8390028B9002084F838002046FDF79E
:102E6000AFFE242084F839002068C06820F40050A8
:102E70002168C8602046FFF731FE2068006920F411
:102E80009040216808612068406920F02A0021688C
:102E900048612068C06840F400502168C860002084
:102EA000E063202084F8390084F83A000020CAE763
:102EB00010B504460CB9012010BD94F8390028B9AA
:102EC000002084F838002046FDF77AFE242084F89C
:102ED00039002068C06820F400502168C86020468E
:102EE000FFF7FCFD2068006920F49040216808612C
:102EF0002068406920F0220021684861206840690C
:102F000040F00800216848612068C06840F4005023
:102F10002168C8600020E063202084F8390084F82C
:102F20003A0003E000100140001401400020C3E714
:102F300070B504460D460CB9012070BD94F83900F7
:102F400028B9002084F838002046FDF739FE2420F7
:102F500084F839002068C06820F400502168C860F7
:102F60002046FFF7BBFD2068006920F4006021685F
:102F700008612068406920F02A00216848612068C3
:102F8000006940F48040216808612068006920F0F1
:102F900020002168086120680069284321680861D1
:102FA0002068C06840F400502168C8600020E063D9
:102FB000202084F8390084F83A000020BDE770B57D
:102FC00004460D4616460CB9012070BD94F8390030
:102FD00028B9002084F838002046FDF7F1FD2420B0
:102FE00084F839002068C06820F400502168C86067
:102FF0002046FFF773FD2068006920F490402168A7
:1030000008612068406920F02A0021684861206832
:10301000006920F00F0021680861206800692843DA
:10302000216808612068C06820F400602168C860D9
:103030002068C06830432168C8602068C06840F4D8
:1030400000502168C8600020E063202084F8390027
:1030500084F83A000020B8E7704710B504460CB970
:10306000012010BD242084F839002046FDF74EFED3
:103070000020E06384F8390084F83A0000BF84F847
:10308000380000BF00BFECE72DE9F04104460D46D3
:1030900017469846069E21E0701CF8B12EB1FEF747
:1030A00064F8A0EB0800B04218D92068C06820F48A
:1030B000D0702168C8602068406920F00100216854
:1030C0004861202084F8390084F83A0000BF0020CD
:1030D00084F8380000BF0320BDE8F0812068006854
:1030E0002840A84201D1012000E00020B842D3D0FE
:1030F0000020F1E72DE9F84304460D4616461F4629
:103100004FF0000994F8390020285CD105B116B9B8
:103110000120BDE8F88300BF94F83800012801D1F0
:103120000220F6E7012084F8380000BF0020E063A9
:10313000212084F83900FEF718F88146A684E68439
:103140002BE0E08C401EE084A068B0F5805F16D1D3
:103150004B460022802120460097FFF795FF08B1DB
:103160000320D6E7A846B8F80000C0F3080021689D
:103170004860206908B9AD1C0FE06D1C0DE04B469E
:103180000022802120460097FFF77EFF08B1032030
:10319000BFE715F8010B21684860E08C0028D0D10A
:1031A0004B460022402120460097FFF76DFF08B1F3
:1031B0000320AEE7202084F8390000BF002084F807
:1031C000380000BFA5E70220A3E72DE9F843044635
:1031D0000D4616461F464FF0000994F83A00202885
:1031E00060D105B116B90120BDE8F88300BF94F89D
:1031F0003800012801D10220F6E7012084F83800C8
:1032000000BF0020E063222084F83A00FDF7ADFF04
:103210008146A685E68539E0E08D401EE085A06800
:10322000B0F5805F1BD14B4600222021204600973D
:10323000FFF72AFF08B10320D6E7A846206938B96E
:1032400020684068C0F30800A8F80000AD1C1DE02D
:1032500020684068C0B2A8F800006D1C16E04B461C
:103260000022202120460097FFF70EFF08B103201F
:10327000BAE7206920B92068406805F8010B05E02D
:103280002068406800F07F0005F8010BE08D002801
:10329000C2D1202084F83A0000BF002084F8380012
:1032A00000BFA1E702209FE710B5034693F839005D
:1032B000202823D101B10AB9012010BD00BF93F825
:1032C0003800012801D10220F7E7012083F83800F7
:1032D00000BF19629A84DA840020D863212083F821
:1032E000390000BF002083F8380000BF1868C068AC
:1032F00040F080001C68E0600020DEE70220DCE790
:1033000010B5034693F83A00202829D101B10AB933
:10331000012010BD00BF93F83800012801D1022020
:10332000F7E7012083F8380000BF99629A85DA85B3
:103330000020D863222083F83A0000BF002083F8E1
:10334000380000BF1868406940F001001C686061E7
:103350001868C06840F490701C68E0600020D8E7EE
:103360000220D6E770470168C96821F490710268AD
:10337000D1600168496921F0010102685161202191
:1033800080F83A1070470168C96821F0C0010268EE
:10339000D160202180F83910704770B506460025AD
:1033A000B46B20684069C0F3C01594F83900212837
:1033B00005D125B10020E0842046FFF7E4FF206816
:1033C0004069C0F3801594F83A00222805D125B150
:1033D0000020E0852046FFF7C6FFE06B40F01000BC
:1033E000E0632046FFF7BEFF70BD704770B504462E
:1033F000A56B2846FFF7F9FF70BD704770B505460D
:10340000AC6B2868006800F4807070B90020E0841C
:103410002068406920F08000216848612068C06809
:1034200040F040002168C86002E02046FFF7E5FF59
:1034300070BDF7B50446154694F8390020283DD1F3
:10344000019800B10DB90120FEBD00BF94F838000D
:10345000012801D10220F7E7012084F8380000BFDD
:1034600001982062A584E5840020E063212084F88F
:103470003900FA48216BC863F948216B0864F948A0
:10348000216BC8640020216B086501AE23681A1DFA
:1034900031682B46206BFEF701FA6FF0400021687F
:1034A000086000BF002084F8380000BF2068406931
:1034B00040F08000216848610020C5E70220C3E792
:1034C000704770B50446A56B2846FFF7F9FF70BD3D
:1034D000704770B50546AC6B2868006800F48070D2
:1034E000B0B90020E0852068C06820F480702168B1
:1034F000C8602068406920F00100216848612068A8
:10350000406920F0400021684861202084F83A009A
:103510002046FFF7DDFF70BD77B581B00446154644
:1035200094F83A00202850D1029800B115B9012032
:1035300004B070BD00BF94F83800012801D102200A
:10354000F6E7012084F8380000BF0298A062A58544
:103550000020E063222084F83A00C348616BC8630E
:10356000C248616B0864BF48616BC8640020616B2E
:10357000086502AE32682368191D2B46606BFEF7A2
:103580008DF900BF0020009020680068009020683E
:103590004068009000BF00BF00BF002084F83800E2
:1035A00000BF2068C06840F480702168C86020684F
:1035B000406940F00100216848612068406940F09E
:1035C0004000216848610020B2E70220B0E70146D0
:1035D000002200BF91F83800012801D10220704775
:1035E000012081F8380000BF08684069C0F3C012AC
:1035F00091F83900212806D12AB10868406920F0E5
:1036000080000B68586108684069C0F3801291F827
:103610003A00222812D18AB10868C06820F480706C
:103620000B68D8600868406920F001000B68586199
:103630000868406920F040000B68586100BF002016
:1036400081F8380000BF00BFC9E708B5014600BFD8
:1036500091F83800012801D1022008BD012081F82D
:10366000380000BF91F83900212805D10868406969
:1036700040F080000A68506191F83A0022281CD17D
:1036800000BF00200090086800680090086840684B
:10369000009000BF00BF0868C06840F480700A68EE
:1036A000D0600868406940F001000A68506108680D
:1036B000406940F040000A68506100BF002081F876
:1036C000380000BF00BFC8E770B504460025206879
:1036D0004069C0F3C01594F8390021280ED16DB1AE
:1036E0002068406920F0800021684861206B10B19B
:1036F000206BFEF722F92046FFF745FE206840695F
:10370000C0F3801594F83A0022280ED16DB12068DC
:10371000406920F0400021684861606B10B1606B27
:10372000FEF70BF92046FFF71EFE002070BD10B516
:1037300004462068C06820F4F0702168C8602068E2
:10374000406920F00100216848612068406900F06C
:10375000800068B12068406920F0800021684861DD
:10376000206B28B10020216B0865206BFEF7E5F87F
:103770002068406900F0400068B12068406920F08E
:10378000400021684861606B28B10020616B0865CA
:10379000606BFEF7D2F80020E084E085E063202033
:1037A00084F83A0084F83900002010BD10B50446B2
:1037B0002068C06820F0C0002168C86020684069A7
:1037C00000F0800068B12068406920F08000216826
:1037D0004861206B28B10020216B0865206BFEF743
:1037E000ACF80020E084202084F83900002010BDCF
:1037F00010B504462068C06820F490702168C86045
:103800002068406920F00100216848612068406913
:1038100000F0400068B12068406920F04000216855
:103820004861606B28B10020616B0865606BFEF732
:1038300084F80020E085202084F83A00002010BDA4
:10384000704770B50546AC6B0020616B0865206B56
:1038500070B1206B006D58B170BD0000FD330008E1
:10386000ED3300089B330008D3340008C33400084C
:103870000020E084E085E063202084F8390084F8AB
:103880003A002046FFF7DCFF00BFE5E770B50546CC
:10389000AC6B0020216B0865606B18B1606B006D2C
:1038A00000B170BD0020E084E085E063202084F852
:1038B000390084F83A002046FFF7C2FF00BFF0E766
:1038C00070B5044601252068C06820F4F0702168B6
:1038D000C8602068406920F0010021684861206BC1
:1038E00058B12068406900F0800018B1F848216B99
:1038F000086502E00020216B0865606B58B1206804
:10390000406900F0400018B1F248616B086502E0C0
:103910000020616B08652068406900F0800080B17C
:103920002068406920F0800021684861206B40B128
:10393000206BFEF75BF818B10020216B086500E0F2
:1039400000252068406900F0400088B12068406987
:1039500020F0400021684861606B48B1606BFEF761
:1039600045F820B10020616B0865012500E00025C5
:10397000012D0BD10020E084E085E063202084F855
:10398000390084F83A002046FFF75AFF002070BD46
:10399000704770B50546AC6B0020E084202084F8A9
:1039A00039002046FFF7F4FF70BD10B504462068CB
:1039B000C06820F0C0002168C8602068406900F03D
:1039C0008000D8B12068406920F0800021684861FB
:1039D000206B50B1C048216B0865206BFEF706F8DC
:1039E000A0B1206B016D884710E00020E08420200A
:1039F00084F839002046FFF7CBFF07E00020E08481
:103A0000202084F839002046FFF7C2FF002010BDB7
:103A1000704770B50546AC6B0020E085202084F827
:103A20003A002046FFF7F4FF70BD10B50446206849
:103A3000C06820F490702168C8602068406920F058
:103A40000100216848612068406900F04000D8B159
:103A50002068406920F0400021684861606B50B1E7
:103A60009E48616B0865606BFDF7C0FFA0B1606B9D
:103A7000016D884710E00020E085202084F83A009E
:103A80002046FFF7C5FF07E00020E085202084F8EE
:103A90003A002046FFF7BCFF002010BD10B50446D9
:103AA0002068C06820F040002168C860202084F8A9
:103AB00039002046FFF7A1FC002010BD014691F817
:103AC000390021282CD18868B0F5805F0FD10A6AAF
:103AD0001088C0F308000B685860086918B9086AB4
:103AE000801C086209E0086A401C086205E00B6A55
:103AF000581C086218780B685860C88C401E80B249
:103B0000C88458B90868C06820F080000B68D86085
:103B10000868C06840F040000B68D860002070471B
:103B20000220FCE770B50546AC6B0020E085E08420
:103B30002046FFF717FC70BD70B5044694F83A00B4
:103B4000222844D1A068B0F5805F13D1A56A20690E
:103B500040B920684068C0F308002880A06A801C33
:103B6000A06219E020684068C0B22880A06A401CAA
:103B7000A06211E0206938B920684068C1B2A26A29
:103B8000501CA062117007E02068406800F07F01BF
:103B9000A26A501CA0621170E08D401E80B2E085C8
:103BA00098B92068C06820F490702168C8602068C7
:103BB000406920F0010021684861202084F83A0023
:103BC0002046FFF785FC002070BD0020FCE70220A6
:103BD000FAE72DE9F0470446206805682068C668C2
:103BE000206847694FF00008C14605F00F08B8F19A
:103BF000000F0AD105F0200038B106F0200020B1F6
:103C00002046FFF799FFBDE8F087B8F1000F78D0A4
:103C100007F0010018B906F49070002871D005F083
:103C2000010030B106F4807018B1E06B40F0010083
:103C3000E06305F0040030B107F0010018B1E06B5B
:103C400040F00200E06305F0020030B107F001002F
:103C500018B1E06B40F00400E06305F0080030B1FB
:103C600007F0010018B1E06B40F00800E063E06B82
:103C700068B305F0200028B106F0200010B12046FE
:103C8000FFF75AFF20684069C0F38019E06B00F02D
:103C9000080010B9B9F1000F2DD02046FFF763FBE3
:103CA0002068406900F0400008B32068406920F0B7
:103CB000400021684861606BA8B10948616B0865E4
:103CC000606BFDF793FE10B1606B016D884717E0E4
:103CD0008D3800084338000893390008133A00086B
:103CE000253B00080DE02046FFF73CFB08E020469E
:103CF000FFF738FB04E02046FFF734FB0020E063C9
:103D000081E705F0800030B106F0800018B1204650
:103D1000FFF7D4FE77E705F0400030B106F0400031
:103D200018B12046FFF7BAFE6DE700BF6BE701460A
:103D300000BF91F83800012801D10220704701200E
:103D400081F8380000BF242081F839000868C06875
:103D500040F001000A68D060202081F8390000BFDF
:103D6000002081F8380000BF00BFE7E7014600BF30
:103D700091F83800012801D102207047012081F814
:103D8000380000BF242081F839000868C06840F07E
:103D900002000A68D060202081F8390000BF0020AE
:103DA00081F8380000BF00BFE7E7014600BF91F887
:103DB0003800012801D102207047012081F8380025
:103DC00000BF242081F839000868C06820F0020094
:103DD0000A68D060202081F8390000BF002081F8F7
:103DE000380000BF00BFE7E70146002200BF91F89E
:103DF0003800012801D102207047012081F83800E5
:103E000000BF242081F839000868C26822F00C0243
:103E100042F008020868C260202081F8390000BF23
:103E2000002081F8380000BF00BFE5E7014600220E
:103E300000BF91F83800012801D10220704701200D
:103E400081F8380000BF242081F839000868C26872
:103E500022F00C0242F004020868C260202081F8BF
:103E6000390000BF002081F8380000BF00BFE5E73F
:103E700001460022002391F8392091F83A3042EAB5
:103E8000030070470146C86B704700003F48006858
:103E900040F470003D4908603D48006840F0010072
:103EA0003B49086000203A490831086038480068FA
:103EB00038490840364908603748091D0860081F1E
:103EC000006820F48020091F0860002030490C3170
:103ED00008604FF000602D4980390860704770B568
:103EE00000200022022300240221294D08352D68DC
:103EF00005F00C0020B1042806D0082834D107E0D2
:103F0000264D274E356033E0264D254E35602FE097
:103F10001F4D2D1D2D68C5F380541D4D2D1D2D6881
:103F200005F03F0154B11F4DB5FBF1F5184E361D9C
:103F30003668C6F3881605FB06F209E0174DB5FB97
:103F4000F1F5134E361D3668C6F3881605FB06F2EA
:103F50000F4D2D1D2D68C5F301456D1C6B00B2FB87
:103F6000F3F50F4E356003E00C4D0D4E356000BF8C
:103F700000BF074D08352D68C5F303150A4E705D67
:103F8000074D2D68C540064E356070BD88ED00E0D8
:103F900000380240FFFFF6FE103000240024F40039
:103FA000C800002040787D0108BD0008094880470E
:103FB00009480047FEE7FEE7FEE7FEE7FEE7FEE70B
:103FC000FEE7FEE7FEE7FEE704480549054A064B23
:103FD000704700008D3E000889010008801700200E
:103FE000801D00208019002080190020704719488A
:103FF0000068704770B5044604F0AEF905461548F0
:104000000460284604F0ACF970BD10B51148006892
:10401000401C1049086003F038FC0446A06C401EA8
:10402000A064A06C18B9606CA06403F006FD04F0F5
:1040300032F810BD0146002902DA4FF0FF3007E0E8
:1040400064224A4302F2E7324FF47A7392FBF3F0B0
:1040500070470000CC00002000207047002070470F
:10406000002070470020704710B5274C02E0206800
:104070008047241D25488442F9D310BD10B5234C38
:1040800002E020688047241D21488442F9D310BDF6
:1040900010B50446FFF7F2FFFCF7BAFE10BD1CB5E1
:1040A00014200A214FF400630022CDE90010AFF282
:1040B0001F0118A003F074FC044624B9D12217494B
:1040C00017A002F0E3FA204603F014FC1CBD10B563
:1040D00004F042F9FCF7D2F902F005FA04F02AF8EC
:1040E00003F0AAF9FFF7DBFF04F030F800F04FFA15
:1040F00003F0BEF9002010BD10B504F02DF9FFF754
:10410000E6FF002010BD000010CD00081CCD000807
:1041100024CD00086D61696E0000000020BD00081C
:1041200074696420213D2052545F4E554C4C000070
:104130002DE9F041064603F0A8FB08B103F053FA5D
:10414000082002F0C5FF044624B97522B849B9A079
:1041500002F09CFA656810E0A5F10C0708223146D0
:10416000384601F0E2FE38B903F08FFB08B103F0E6
:1041700048FA3846BDE8F0812D68201D8542EBD114
:1041800003F083FB08B103F03CFA0020F2E770B5BE
:1041900004460D46164614B94FF0FF3070BD284650
:1041A000FFF7C6FF10B14FF0FF30F7E72A460821AE
:1041B000204602F09FFFE6820020A076208300BF09
:1041C000ECE710B5044624B94D22A049A0A002F0A6
:1041D0005DFA204602F0BCFF002010BD00207047B1
:1041E0002DE9F04105460E4640273744384602F097
:1041F00091FB04462CB140220021204601F0A7FD8E
:1042000025752046BDE8F08110B504462046FFF72D
:10421000D8FF204602F083FC10BD70B5044600258F
:1042200024B9C5228E498AA002F030FA606A90B1A2
:10423000A07D00F0100070B92046616A88470546ED
:104240002DB12A46214687A002F01DF903E0E08A3D
:1042500040F01000E082284670BD70B504460E465E
:10426000002524B9E8228D4979A002F00FFAA07D3B
:1042700000F0100088B9606A58B12046616A88472A
:10428000054635B12A46214676A002F0FCF82846BC
:1042900070BDE08A40F01000E082A07D00F00800D0
:1042A00030B1207E00F0080010B16FF00600EFE79B
:1042B000A06A28B131462046A26A9047054603E02D
:1042C00040F60F70304020830DB1A81D70B9208BCF
:1042D00040F008002083A07E401CA076A07E28B974
:1042E0004FF48B726D496EA002F0D0F92846CFE7EB
:1042F00070B5044600252CB94FF494726D4954A052
:1043000002F0C4F9A07E10B94FF0FF3070BDA07E5E
:10431000401EA076A07E08B10020F7E7E06A18B141
:104320002046E16A884705460DB1A81D08B900205E
:1043300020832846EAE72DE9F04104460D4616465B
:104340001F462CB940F251125B4941A002F09EF980
:10435000A07E30B94FF0FF3001F0D8FC0020BDE85E
:10436000F081206B38B13B46324629462046D4F8CE
:1043700030C0E047F3E76FF0050001F0C7FC002014
:10438000EDE72DE9F04104460D4616461F462CB9CF
:1043900040F2771249492EA002F078F9A07E30B998
:1043A0004FF0FF3001F0B2FC0020BDE8F081606BFF
:1043B00038B13B46324629462046D4F834C0E0475F
:1043C000F3E76FF0050001F0A1FC0020EDE770B508
:1043D00004460D4616462CB940F2971238491CA0E7
:1043E00002F054F9A06B28B1324629462046A36B4F
:1043F000984770BD6FF00500FBE770B504460D46A9
:104400002CB94FF4D8722F4911A002F03FF9E561A1
:10441000002070BD70B504460D462CB940F2C5129F
:1044200029490BA002F032F92562002070BD00007E
:1044300049BD0008696E666F726D6174696F6E20A8
:10444000213D2052545F4E554C4C000034BD0008B5
:1044500064657620213D2052545F4E554C4C00003F
:1044600058BD0008546F20696E697469616C697A7F
:1044700065206465766963653A2573206661696CB9
:1044800065642E20546865206572726F7220636FB8
:1044900064652069732025640A00000067BD000878
:1044A0006465762D3E7265665F636F756E7420215C
:1044B0003D20300076BD000886BD000895BD00088F
:1044C000A5BD0008B7BD0008D1BD00083E49086081
:1044D000704770B54BE000BF03F03EFF064601F0A9
:1044E000FBFB40B139493AA001F0CDFF66223749C4
:1044F00041A002F0CBF8304603F032FF00BF03F0DA
:104500002BFF054600F058F818B33C480068A0F1AE
:10451000140404F11400D0E900215160D0E9001224
:1045200011604060006000BF03F05DF8A06F10B143
:104530002046A16F8847204602F09BFE012805D146
:1045400003F05FF8284603F00BFF70BD03F059F845
:1045500003E0284603F004FFF7E7284603F000FFD6
:10456000A06A02F0DCFA204602F059FE00BF00F01B
:1045700023F80028AFD100BFE7E707E01248006842
:1045800010B1114800688047FFF7A3FFF6E71FB599
:1045900020201F21C2001A4BCDE90032CDE90210C4
:1045A0000023184A18A11A4803F04AF9184803F0E2
:1045B000A1F91FBD1648704710490868884201D00C
:1045C000012070470020FCE7D0000020EBBD000870
:1045D00046756E6374696F6E5B25735D20736861E9
:1045E0006C6C206E6F74206E652075736564206935
:1045F0006E204953520A000030000000D001002014
:10460000340300207B4500087469646C6500000079
:10461000B40200204268116042684A60416008604C
:1046200070472DE9F04105460C469046204603F0C0
:1046300032FAB8F1000F03D0B8F1010F23D105E031
:1046400004F114012846FFF7E5FF1CE02E680FE097
:10465000A6F1140794F8350097F83510884206DA69
:1046600004F1140107F11400FFF7D4FF02E03668EB
:10467000AE42EDD100BFAE4204D104F11401284690
:10468000FFF7C8FF00BF00BF0020BDE8F08170B594
:1046900005460EE003F060FE06462868A0F114040B
:1046A0004FF0FF302063204603F0F2F8304603F06D
:1046B00057FE284601F0B4FA0028EBD0002070BD68
:1046C0002DE9F04104460D4616461F4624B9D8226E
:1046D000FD49FEA001F0DAFF2A460121204602F042
:1046E00009FD204601F0A4FAA68367720020BDE808
:1046F000F08110B5044624B9F522F849F3A001F081
:10470000C5FF04F11400FFF7C2FF204602F020FDB0
:10471000002010BD2DE9F04105460E46174600BFAA
:1047200003F01AFE804601F0D7FA48B1EC49EDA03B
:1047300001F0A9FE40F21112E949F4A001F0A6FF30
:10474000404603F00DFE00BF2946012002F01DFD8A
:10475000044614B92046BDE8F081204601F068FA0D
:10476000A68367722046F6E770B5044600BF03F0E3
:10477000F3FD054601F0B0FA48B1E549D9A001F0D2
:1047800082FE4FF49872E249E0A001F07FFF2846D4
:1047900003F0E6FD00BF2CB94FF49972DC49CBA0C1
:1047A00001F074FF04F11400FFF771FF204602F0DE
:1047B00036FD002070BD2DE9F34105462DB940F2CC
:1047C0004D12D449C1A001F061FF00BFD24800687A
:1047D00018B12846D0490968884700BF03F0BCFDDE
:1047E000064600BF00BFA88B002806DDA88B401E30
:1047F000A883304603F0B4FD57E0019830B9304645
:1048000003F0AEFD6FF00100BDE8FC8100BF03F0D6
:10481000A3FD074603F039F848B9BE49BFA001F02F
:1048200032FE40F26D12BB49B8A001F02FFF00BF6D
:1048300003F092FD804601F04FFA48B1B549A9A0B6
:1048400001F021FE40F26D12B249B0A001F01EFF4E
:10485000404603F085FD00BF384603F081FD00BFF0
:1048600003F013F804460020206300BF00BF6A7AFB
:10487000214605F11400FFF7D4FE019800280BDD56
:1048800000BF00BF01AA002104F14C0003F0DDFBD2
:1048900004F14C0003F01FFB304603F061FD02F011
:1048A000F9FD206B08B1206BAEE700BFA948006896
:1048B00018B12846A7490968884700BF0020A3E728
:1048C00010B5044600212046FFF775FF10BD70B5F6
:1048D000044600BFA048006818B120469E490968F8
:1048E000884700BF002503F037FD064600BF00BF24
:1048F00004F1140001F094F928B904F1140001F056
:104900009FF9012502E0A08B401CA083304603F0F4
:1049100027FD012D01D102F0BDFD002070BD2DE964
:10492000F04104460E4615462CB94FF4F2728B49FD
:1049300066A001F0ABFE012E10D12F4603F00CFD56
:10494000804604F11400FFF7A2FEA783404603F05F
:1049500007FD02F09FFD0020BDE8F0814FF0FF3021
:10496000FAE770B504460D4616462CB940F20F2200
:104970007B497CA001F08AFE2A460221204602F0F3
:10498000B9FB204601F054F90120A08300202062E9
:10499000FF20A0770020E077667270BD10B5044656
:1049A0002CB940F22E2274496EA001F06FFE04F182
:1049B0001400FFF76CFE204602F0CAFB002010BD79
:1049C0002DE9F04105460E4600BF03F0C5FC074641
:1049D00001F082F948B1694942A001F054FD40F26A
:1049E0004922664949A001F051FE384603F0B8FC5F
:1049F00000BF2946022002F0C8FB044614B9204635
:104A0000BDE8F081204601F013F90120A0830020C9
:104A10002062FF20A0770020E07766722046EFE753
:104A200070B5044600BF03F097FC054601F054F949
:104A300048B153492BA001F026FD40F26A225049AB
:104A400032A001F023FE284603F08AFC00BF2CB9F7
:104A50004FF41B724A4943A001F018FE04F1140000
:104A6000FFF715FE204602F0DAFB002070BD2DE9AD
:104A7000F341044600BF03F06FFC074602F005FF58
:104A800048B9404925A001F0FEFC4FF422723D498F
:104A90001EA001F0FBFD00BF03F05EFC804601F0AC
:104AA0001BF948B137490FA001F0EDFC4FF4227219
:104AB000344916A001F0EAFD404603F051FC00BF66
:104AC000384603F04DFC5FE001BE000873656D20C1
:104AD000213D2052545F4E554C4C00000DBE000845
:104AE0001BBE000846756E6374696F6E5B25735D4F
:104AF000207368616C6C206E6F74206E6520757316
:104B0000656420696E204953520A0000300000009D
:104B100029BE000837BE0008B401002046756E6348
:104B200074696F6E5B25735D207368616C6C206EB9
:104B30006F742062652075736564206265666F72AC
:104B400065207363686564756C6572207374617247
:104B5000740A0000B8010020BC01002043BE000818
:104B600052BE00086D7574657820213D2052545F57
:104B70004E554C4C0000000060BE000870BE00089E
:104B800080BE000890BE000800BF34B940F28A22FF
:104B9000F749AFF2300001F079FD02F076FE0546EC
:104BA00003F0DAFB064600BFF248006818B1204661
:104BB000F0490968884700BF00BF00BF0020286394
:104BC000206AA84203D1E07F401CE0774EE000BF9E
:104BD000A08B00280ADDA08B401EA083256295F8DB
:104BE0003500A077E07F401CE0773FE0019848B9AE
:104BF0006FF001002863304603F0B2FB6FF0010054
:104C0000BDE8FC8100BF00BF95F83500216A91F82E
:104C10003510884205DA05F135020221206A03F0D9
:104C20001CF8627A294604F11400FFF7FAFC019897
:104C300000280BDD00BF00BF01AA002105F14C00D8
:104C400003F003FA05F14C0003F045F9304603F098
:104C500087FB02F01FFC286B28B1286B093000B9D4
:104C6000B6E7286BCCE703F077FB0646304603F047
:104C700077FB00BFC048006818B12046BE490968EC
:104C8000884700BF0020BBE72DE9F0470446002617
:104C900000BF03F061FB804602F0F7FD58B9B74949
:104CA000AFF2881001F0EFFB40F21132B349AFF2DE
:104CB000A41001F0EBFC00BF03F04EFB814601F0B5
:104CC0000BF858B1AD49AFF2E41001F0DCFB40F253
:104CD0001132AA49AFF2CC1001F0D8FC484603F0DB
:104CE0003FFB00BF404603F03BFB00BF02F0CDFDA1
:104CF000054603F031FB074600BF00BF00BFA048D8
:104D0000006818B120469E490968884700BF206A9C
:104D1000A84209D04FF0FF302863384603F020FB4B
:104D20004FF0FF30BDE8F087E07F401EE077E07F86
:104D300008BBA07F216A91F83510884205D004F1A4
:104D40001E020221206A02F088FF04F1140000F024
:104D500067FF88B96069A0F1140500BF00BF256234
:104D600095F83500A077E07F401CE07704F114004F
:104D700000F066FF012606E0A08B401CA083002007
:104D80002062FF20A077384603F0EAFA012E01D115
:104D900002F080FB0020C5E703464FF0FF3070476C
:104DA00070B504460D4616462CB940F27F3275495F
:104DB00075A001F06BFC2A460321204602F09AF907
:104DC0006672204600F034FF0020E06170BD10B52F
:104DD00004462CB940F29B3270496BA001F056FC9E
:104DE00004F11400FFF753FC204602F0B1F9002053
:104DF00010BD2DE9F04105460E4600BF03F0ACFAA8
:104E0000074600F069FF58B16549AFF2283001F05C
:104E10003AFB4FF46D726249AFF2103001F036FC8C
:104E2000384603F09DFA00BF2946032002F0ADF991
:104E3000044614B92046BDE8F0816672204600F0B1
:104E4000F7FE0020E0612046F5E770B504462CB976
:104E500040F2D23253494CA001F018FC00BF03F0DD
:104E60007BFA054600F038FF58B14E49AFF28C305E
:104E700001F009FB4FF475724A49AFF2703001F04E
:104E800005FC284603F06CFA00BF04F11400FFF79C
:104E9000FEFB204602F0C3F9002070BD2DE9F0476B
:104EA00004460F462CB940F2F3323F4936A001F0D8
:104EB000EDFB1FB94FF0FF30BDE8F0874FF0000861
:104EC00000BF2F48006818B120462D49096888475F
:104ED00000BF03F041FA8246E0693843E06104F123
:104EE000140000F09DFEC0BB666932E0A6F1140517
:104EF0004FF0FF3995F8400000F0010040B1E86B39
:104F0000E1690840E96B884211D14FF000090EE0D9
:104F100095F8400000F0020048B1E86BE1690840F4
:104F200028B1E86BE1690840E8634FF00009366892
:104F3000B9F1000F0DD195F8400000F0040018B150
:104F4000E069E96B8843E061284602F0A1FC4FF07C
:104F5000010804F114008642C8D1504603F000FA5B
:104F6000B8F1010F01D102F095FA0020A4E700008A
:104F700090BE0008B4010020B80100209EBE0008C9
:104F8000BC010020AFBE00086576656E7420213D2F
:104F90002052545F4E554C4C00000000BDBE00082E
:104FA000CDBE0008DDBE0008EDBE00082DE9FF4FB4
:104FB00081B005460E461746DDF8388000BF03F085
:104FC000CBF9009002F061FC58B9FE49AFF2B44051
:104FD00001F059FA40F25342FA49AFF2D04001F0E1
:104FE00055FB00BF03F0B8F9834600F075FE58B1D9
:104FF000F449AFF2105001F046FA40F25342F14941
:10500000AFF2F84001F042FB584603F0A9F900BFA7
:10501000009803F0A5F900BF35B940F25642E949BE
:10502000AFF29C0001F032FB26B94FF0FF3005B023
:10503000BDE8F08F4FF0FF3902F027FC0446002155
:10504000216300BFE048006818B12846DE490968BE
:10505000884700BF03F080F9824607F0010030B1B5
:10506000E8693040B04212D14FF000090FE007F07C
:10507000020028B1E869304048B14FF0000906E06D
:1050800040F27442CF49AFF27C5001F0FFFAB9F11F
:10509000000F0DD1B8F1000F03D0E8693040C8F817
:1050A000000007F0040088B3E869B043E8612DE030
:1050B000049818B96FF00100206327E0E66384F8D4
:1050C00040706A7A214605F11400FFF7AAFA0498A5
:1050D000002809DD04AA002104F14C0002F0B5FF0C
:1050E00004F14C0002F0F7FE504603F039F902F0EB
:1050F000D1F9206B08B1206B99E703F02DF98246B6
:10510000B8F1000F02D0E06BC8F80000504603F081
:1051100027F900BFAD48006818B12846AB490968B7
:10512000884700BF206B82E72DE9F04104460D4619
:10513000174634B940F2C442A549AFF2B41001F0A9
:10514000A5FA012D10D103F007F9064604F1140069
:10515000FFF79DFA0020E061304603F001F902F00C
:1051600099F90020BDE8F0814FF0FF30FAE72DE912
:10517000F04104460D4616461F46DDF818802CB94E
:1051800040F2F142934994A001F080FA2A460421AA
:10519000204601F0AFFF84F80980204600F048FD6A
:1051A000E661278400206084A084E08404F1280064
:1051B00000F033FD0020BDE8F08110B504462CB9A5
:1051C00040F21452884984A001F060FA04F11400FE
:1051D000FFF75DFA04F12800FFF759FA204601F0C5
:1051E000B7FF002010BD2DE9F04105460E461746D9
:1051F00000BF03F0B1F8804600F06EFD58B17B4966
:10520000AFF2207001F03FF94FF4A6627749AFF298
:10521000047001F03BFA404603F0A2F800BF2946B3
:10522000042001F0B2FF044614B92046BDE8F08125
:105230006772204600F0FCFC2684218C880001F077
:1052400069FBE061E06920B9204601F0E8FF002039
:10525000ECE700206084A084E08404F1280000F0E2
:10526000DCFC2046E2E770B5044600BF03F074F8AA
:10527000054600F031FD58B15D49AFF2987001F07C
:1052800002F940F25B525A49AFF2807001F0FEF928
:10529000284603F065F800BF2CB940F25E5254492D
:1052A0004DA001F0F3F904F11400FFF7F0F904F157
:1052B0002800FFF7ECF9E06901F031FC204601F02D
:1052C000AEFF002070BD2DE9F74F04460F462CB904
:1052D00040F28B52474940A001F0D8F9002602F075
:1052E000D4FA054600BF4448006818B12046424938
:1052F0000968884700BF03F02FF88046608C218C36
:10530000884208D1029830B9404603F029F86FF07E
:105310000200BDE8FE8F86E000202863029828B9CD
:10532000404603F01DF86FF00200F2E700BF03F003
:1053300013F8814602F0A9FA58B92E49AFF62400B5
:1053400001F0A1F840F2AE522A49AFF6400001F058
:105350009DF900BF03F000F8824600F0BDFC58B193
:105360002449AFF6800001F08EF840F2AE52214998
:10537000AFF6680001F08AF9504602F0F1FF00BF75
:10538000484602F0EDFF00BF627A294604F128008A
:10539000FFF747F9029800280EDDFEF728FE0646C3
:1053A00000BF00BF02AA002105F14C0002F04DFE33
:1053B00005F14C0002F08FFD404602F0D1FF02F0F3
:1053C00069F81BE0FBBE0008B4010020B801002012
:1053D00009BF00081ABF00086D6220213D20525409
:1053E0005F4E554C4C00000025BF000832BF00083E
:1053F0003FBF00084CBF0008BC010020286B08B16B
:10540000286B86E702F0A8FF8046029800280ADD94
:10541000FEF7EDFD861B0298801B02900298002883
:1054200001DA00200290608C218C88423FF474AF36
:10543000A18CE06940F82170A08C401CA084A08C55
:10544000218C884201DB0020A084608C401C608499
:1054500004F1140000F0E4FB50B904F1140000F072
:10546000EFFB404602F07CFF02F014F8002050E70A
:10547000404602F075FF00204BE770B504460D462C
:10548000002229462046FFF71EFF70BD2DE9F74F89
:1054900004460F4634B940F21C62FA49AFF2C80024
:1054A00001F0F4F8002602F0F0F9054600BFF648D6
:1054B000006818B12046F4490968884700BF02F027
:1054C0004BFF8046608C40B9029830B9404602F0EC
:1054D00047FF6FF00100BDE8FE8F6AE000202863FF
:1054E000029830B9404602F03BFF6FF0010028639C
:1054F000F1E700BF02F030FF814602F0C6F958B96B
:10550000E049AFF6E81000F0BEFF40F24162DD492D
:10551000AFF6082001F0BAF800BF02F01DFF824686
:1055200000F0DAFB58B1D749AFF6482000F0ABFFE6
:1055300040F24162D349AFF62C2001F0A7F8504663
:1055400002F00EFF00BF484602F00AFF00BF627A79
:10555000294604F11400FFF764F8029800280EDDD4
:10556000FEF745FD064600BF00BF02AA002105F177
:105570004C0002F06AFD05F14C0002F0ACFC404624
:1055800002F0EEFE01F086FF286B08B1286BA2E75F
:1055900002F0E2FE8046029800280ADDFEF727FDB1
:1055A000861B0298801B02900298002801DA0020D6
:1055B0000290608C002891D0E18CE06950F82100C5
:1055C0003860E08C401CE084E08C218C884201DB58
:1055D0000020E084608C401E608404F1280000F00C
:1055E0001FFB98B904F1280000F02AFB404602F0A6
:1055F000B7FE00BFA548006818B12046A349096856
:10560000884700BF01F046FF002064E7404602F0F3
:10561000A7FE00BF9D48006818B120469B49096855
:10562000884700BF002056E72DE9F04104460D46AB
:10563000174634B940F29F629549AFF2642001F0F9
:1056400025F8012D16D102F087FE064604F114005C
:10565000FFF71DF804F12800FFF719F80020608417
:10566000A084E084304602F07BFE01F013FF0020AE
:10567000BDE8F0814FF0FF30FAE72DE9F05F044616
:105680000F4690469946DDE90AAB2CB940F2DB6241
:10569000804981A000F0FAFF3A460521204601F03A
:1056A00029FD84F809B0204600F0C2FAC4F81C8035
:1056B00009F1030020F003002084208C001DBAFBB8
:1056C000F0F060840020A062E0622063002508E022
:1056D000208C001DE16905FB0016206B30602663FD
:1056E0006D1C608CA842F3DC0020A084BDE8F09F14
:1056F00010B504462CB940F20C726B4966A000F05C
:10570000C5FF04F11400FEF7C2FF204601F020FDA2
:10571000002010BD70B5044600BF02F01DFE054616
:1057200000F0DAFA58B16149AFF6484000F0ABFE3C
:1057300040F266725D49AFF62C4000F0A7FF2846A4
:1057400002F00EFE00BF2CB940F26972574952A018
:1057500000F09CFF04F11400FEF799FFE06901F0EE
:10576000DEF9204601F05BFD002070BD2DE9F05F01
:105770000746884691469A4600BF02F0EDFD8346F3
:1057800000F0AAFA58B14A49AFF6A84000F07BFEF3
:1057900040F22C724649AFF68C4000F077FF584635
:1057A00002F0DEFD00BF3946052001F0EEFC0446A4
:1057B00014B92046BDE8F09F84F809A0204600F007
:1057C00037FA08F1030020F003002084A4F82290A7
:1057D000218C091D628C01FB02F001F09BF8E06155
:1057E000E06920B92046FFF795FF0020E2E700209E
:1057F000A062E0622063002508E0208C001DE169C2
:1058000005FB0016206B306026636D1C608CA8427F
:10581000F3DC0020A0842046CCE72DE9F0410446CB
:105820000F4616462CB940F28F7222491AA000F09A
:105830002DFF2FB94FF4F2621E491FA000F026FF82
:105840002EB940F291721B4920A000F01FFF208C5E
:10585000B04203D24FF0FF30BDE8F08100BF1E48D8
:10586000006818B120461C490968884700BF02F04B
:1058700073FD8046256B8DBB404602F071FD6FF0D5
:105880000200E9E75CBF0008B4010020B801002075
:1058900067BF000875BF00086D7120213D2052547C
:1058A0005F4E554C4C00000080BF00089ABF0008B6
:1058B0008DBF0008A7BF000862756666657220216B
:1058C0003D2052545F4E554C4C00000073697A6580
:1058D00020213D2030000000BC010020FFE72868A7
:1058E0002063404602F03CFD0020286032463946E5
:1058F000281D00F050FA02F02FFD8046E06A08B142
:10590000E06A0560E562A06A00B9A562A08C401C4F
:10591000A08404F1140000F083F950B904F11400DC
:1059200000F08EF9404602F01BFD01F0B3FD0020AF
:1059300092E7404602F014FD00208DE72DE9F0418A
:1059400004460F46164634B940F2E772C249AFF238
:10595000B80000F09BFE37B94FF4FD62BE49AFF2CC
:10596000A80000F093FE36B940F2E972BA49AFF2EE
:10597000A40000F08BFE208CB04203D24FF0FF3029
:10598000BDE8F08100BFB548006818B12046B349B2
:105990000968884700BF02F0DFFC8046256B2DB9FF
:1059A000404602F0DDFC6FF00200E9E72868206362
:1059B000404602F0D5FC32463946281D00F0EBF98E
:1059C00002F0CAFC8046A06A2860A562E06A00B9BD
:1059D000E562A08C401CA08404F1140000F020F9C2
:1059E00050B904F1140000F02BF9404602F0B8FC65
:1059F00001F050FD0020C3E7404602F0B1FC00205A
:105A0000BEE72DE9FF4F81B004460F46904634B9FA
:105A100040F63F029249AFF2801000F037FE37B9EE
:105A20004FF404628E49AFF2701000F02FFEB8F10F
:105A3000000F06D140F641028949AFF2701000F024
:105A400025FE4FF0000901F020FF054600BF854804
:105A5000006818B1204683490968884700BF02F0F2
:105A60007BFC8246A08C48B9049838B9504602F0B5
:105A700077FC6FF0010005B0BDE8F08F6CE000BF6F
:105A800002F06AFC009001F000FF58B97449AFF6CB
:105A9000747000F0F8FC40F657027149AFF2CC1078
:105AA00000F0F4FD00BF02F057FC834600F014F94B
:105AB00058B16B49AFF6D47000F0E5FC40F65702E0
:105AC0006749AFF2F01000F0E1FD584602F048FCE3
:105AD00000BF009802F044FC00BF00202863049837
